:020000041000EA
:1000000000B5324B212058609868022188439860DF
:10001000D860186158612E4B002199600221596106
:100020000121F02299502B49196001219960352056
:1000300000F044F80222904214D00621196600F024
:1000400034F8196E01211966002018661A6600F04E
:100050002CF8196E196E196E052000F02FF8012189
:100060000842F9D1002199601B49196000215960AB
:100070001A491B48016001219960EB211966A021F2
:10008000196600F012F800219960164914480160C1
:100090000121996001BC002800D000471248134993
:1000A000086003C880F30888084703B5996A0420EC
:1000B0000142FBD001200142F8D103BD02B5186610
:1000C0001866FFF7F2FF186E186E02BD00000240BE
:1000D000000000180000070000035F00212200005C
:1000E000F4000018222000A00001001008ED00E03C
:1000F00000000000000000000000000074B24E7A12
:1001000000200420F7010010C3010010C5010010F9
:10011000C1010010C1010010C1010010C101001097
:10012000C1010010C1010010C1010010C701001081
:10013000C1010010C1010010C9010010CB01001065
:10014000CD010010CD010010CD010010CD01001037
:10015000CD010010CD010010CD010010CD01001027
:10016000CD010010CD010010CD010010CD01001017
:10017000CD010010CD010010CD010010CD01001007
:10018000CD010010CD010010CD010010CD010010F7
:10019000CD010010CD010010CD010010CD010010E7
:1001A000CD010010CD010010CD010010CD010010D7
:1001B000CD010010CD010010CD010010CD010010C7
:1001C00000BE00BE00BE00BE00BE00BE00F04BF888
:1001D000103800BEF2EB8871F45900101C5A001060
:1001E0003402001090A31AE700202149086006C8D5
:1001F00081F3088810471F48006800282FD10DA4FC
:100200000ECC002902D000F012F8F9E71A491B4A77
:10021000002000E001C19142FCD1194988471949E9
:1002200088471949884700BEFDE701C901C29A42C3
:10023000FBD370471C5A0010C00000202C1A00206D
:100240008873001000000420000004208873001050
:1002500000100420001004200000000070470B482C
:1002600003F014F90047EFF30580C0B270470000B7
:1002700008ED00E0000000D0301A0020481E0020E9
:10028000711500105D030010A516001057560000F0
:1002900006005250ABB360537C5800100600525019
:1002A000861C03028C580010060052505422A29D56
:1002B0009858001005005250DE65F46888730010ED
:1002C000F8B5C0460448054B10B5834203D0044B33
:1002D000002B00D0984710BD2C1A00202C1A0020AB
:1002E0000000000006480749091A8910CB0F591869
:1002F00010B5491003D0044B002B00D0984710BD17
:100300002C1A00202C1A00200000000010B5074C09
:100310002378002B09D1FFF7D5FF054B002B02D026
:10032000044800E000BF0123237010BD301B0020F3
:100330000000000078550010054B10B5002B03D0CD
:100340000449054800E000BFFFF7CCFF10BDC046E0
:1003500000000000341B002078550010F0B5D64690
:100360004F464646C0B5642082B000F03FFC04F022
:10037000EBF9642000F03AFC1F4804F0D9F91F4D56
:100380001F49280004F04CFA0321082000F042F82D
:100390000321092000F03EF800220121082000F08E
:1003A00051F800220121092000F04CF8154B0127DB
:1003B0009A46154B00269946144B154C98465246C2
:1003C000009701236821280004F0AEFA220000966D
:1003D00002236821280004F011FB237861781B02B6
:1003E00019434B4609B24046198004F0A1F9FA209E
:1003F000800000F0FBFBE2E77C550010C4110020F8
:10040000801A060078550010341C00208C5500100E
:10041000801B0020094A830094464022634410B5A3
:100420001C68C0006240C024144080225201134363
:100430001C60034B9C466044416010BD04C00140F9
:10044000004001400A4B80009C4604236044002980
:1004500001D00C230821002A00D10B000268534070
:100460000C221A4080235B01184302607047C0468B
:1004700004C00140F8B5EFF3108772B60D4E336833
:10048000002BFCD0BFF35F8F0725CB08C0180123DA
:100490000D40AB401D000478254007D12343037075
:1004A000BFF35F8F356087F31088F8BD100001F04F
:1004B000FBF8C0462C0100D0024B18688007C00F23
:1004C0007047C04600C006400021044B044ABFF3F9
:1004D0005F8F02C39342FAD17047C046000100D03B
:1004E000800100D0044A1078431CDBB2172B00D9DE
:1004F000102313707047C04610110020F8B5040097
:1005000006200D0001F04EFA002845D02B4B2C4957
:10051000E3185A4253418022D20394465B4213406F
:10052000284A63441360284A136018008A6890437D
:10053000FBD1224B8021E3185A425341234A5B00EE
:1005400049000620995201F02DFA2900C00002F05E
:10055000F3FFC30921D140270122260080256262D2
:10056000A36200232C36AD0135432B60062001F039
:1005700019FA3900800002F0DFFF6023E26A53407D
:100580006E221A4080235B0133431A60104B2363B1
:1005900010232B600D3BA364F8BD0E4A934203D990
:1005A00000230D4F0D4AD8E77F221040013040084C
:1005B0009F011A003F180300CFE7C0460080FCBF30
:1005C00000C0004000E0004000F000403C1C002063
:1005D00001030000FEFF0000C0FF3F00FFFF00001E
:1005E00083680B4810B584466144624409011201D6
:1005F0009A18591854684B6801209C4201D802D0BF
:100600000020C0B210BD12680B689A42F9D8F7E713
:10061000FFFFFF0F0A4B1968EFF3108072B60A68EC
:10062000002AFCD0BFF35F8F1B68BFF35F8F0022EF
:100630001A6080F3108840BF002000217047C04638
:100640001C1C0020F8B5454657464E46DE46E0B530
:1006500014000DAA12781D000CAB92461B7802689C
:1006600081469046002B13D1977B002F4AD04046FD
:100670007E001268F619033E921951783B0081738F
:10068000002900D1C173002191705170117003E0F5
:100690001F005E00F618033E2E4A94464A469268B2
:1006A000634494461B010A9A63449A600B9A1C6047
:1006B0005D60DA60434600221B689B199A705A708D
:1006C0001A7043465B7B9B46002B2BD043463A0077
:1006D000986859465B6898475B4642465B005B44B6
:1006E000033B1268002814D0D31896195A46B270EA
:1006F0001A78002A00D072701F705A4643465A7307
:10070000BB4511D038003CBC90469946A246AB464A
:10071000F8BDD31896199F703278002A00D05A700D
:100720005B46337043465F734B462200187D2B00B7
:1007300000F03EFB041E07D05346002B04D14B466D
:100740003900186800F0D6FE0E9B002BDAD01C7022
:10075000D8E7C046FFFFFF0FF0B5DE4657464E46CE
:1007600045460023E0B58DB00A936D4B8200D45806
:1007700000239B460B9000F0B9FA6268EFF31085F6
:1007800072B61368002BFCD0BFF35F8F23689C46C2
:100790005B7B9946002B00D16BE0A268614B9046D1
:1007A0004B441B01984443461E685F6832003B007F
:1007B000121A8B41002B65DD3B0032000B9800F0D4
:1007C000F7FA0023002208920993002300279A4693
:1007D0006368BFF35F8F5A461A6085F310885346EB
:1007E000002B08D10028C6D10DB03CBC90469946DC
:1007F000A246AB46F0BD0A9B390018024B4618438F
:10080000D047626806900791EFF3108872B656469B
:1008100045461368002BFCD0B246A846BFF35F8F55
:100820000699079A131E49DB194302D02369002B4E
:100830005FD12368DA7B002A07D051008A18196833
:100840008C4649466244033A51704A46DA73E2687C
:100850004B469446013B63441A7801321A705B465A
:1008600023616368BFF35F8F5A461A6088F310886C
:1008700081E70023002208920993002300279A466B
:100880000020A5E7002B01D1002A95D10021604668
:1008900000F052FD43461A685B680892099343468C
:1008A0009B689A464346DF68E3684B44013B1B78EC
:1008B0000A931B0203432361002089E72369002B6D
:1008C000B7D0089D099E6D1A96412A003300089DF5
:1008D000099E9E4218D81BD05946049101210391CC
:1008E000494602915146019700912000FFF7AAFE68
:1008F000B5E700F0FBF9069A079B12184B419942A5
:1009000002D8E9D19042E7D901225242D317E3E756
:1009100008999142E0D901225242D317DCE7C04640
:100920000C1C0020FFFFFF0F10B5124C6368002B5A
:1009300004D00A21104800F0CFFA10BD23000F4A5E
:100940001021206800F01AFB032000F0C3F90320F7
:1009500000F0A2FA0A49032000F0E4F9FFF7C2FD13
:10096000084B9C46032360442375074B800060605E
:10097000DC60DEE7141100201C1C0020E1050010E3
:1009800059070010400000340C1C0020F0B55746F9
:100990004546DE464E46E0B585B00092019310AB69
:1009A0001B7800270393002380469A4643465A68E3
:1009B000EFF3108972B61368002BFCD0BFF35F8F82
:1009C00043461D68AC7B002C4FD0660036192B685F
:1009D000033E9B195A78AA73002A00D1EA73424653
:1009E0009F705F701F7092684E4B94460099019AF9
:1009F000E3181B01634419605A600E9A9A600F9ABB
:100A0000DA602B689B199F705F701F706B7B9B4631
:100A1000002B42D022001900A8686B6898475B46FB
:100A20005B005B44033B2A6800282DD0D31896193D
:100A30005A46B2701A78002A00D072701C705B4659
:100A40006B735C452AD04346DB681B19013B187861
:100A500043465B68BFF35F8F1F6089F3108853467E
:100A6000002B2AD10002204307E05B68BFF35F8FB1
:100A70001C6089F310880120404205B03CBC9046C0
:100A80009946A246AB46F0BDD31896199C703278B1
:100A9000002A00D05A705B4633706C734346187D51
:100AA000009A019B00F084F982460028CBD043468F
:100AB0002100186800F01EFDC5E7039B002B2FD016
:100AC0000E9B0F990020984703000B4328D0040089
:100AD0000D1E0DDA0098019902000B00121BAB41AC
:100AE000994213D818D000920193039B9A465DE770
:100AF00000F0FCF824184D4123002C0000930194D1
:100B0000A94203D8F1D1009B9842EED901235B4260
:100B1000DC1700930194E8E700999142E3D9F5E7E7
:100B20000020AAE7FFFFFF0FF0B504000D00062626
:100B30007642F717C64636196F4100B584B08F422A
:100B400014D811D000F0D2F832003B00121A8B41B9
:100B5000002B15DC002B3ED02000290000F0D2F83D
:100B600004B004BC9046F0BD8642EBD900260027B5
:100B700000F0BCF832003B00121A8B41002BE9DD7B
:100B8000002302930193154B3200009314483B005D
:100B9000FFF7FCFE0028DFDB00239846BC46114A25
:100BA000114F7B6A9C4504D8B96AB142D4D29C45A6
:100BB000D2D11168EFF3108072B60B68002BFCD015
:100BC000BFF35F8F1368BFF35F8F4146196080F3F7
:100BD000108820BFE5E7002ABED0D1E71506001037
:100BE000141100201C1C00200040054070B50600B8
:100BF00000F07CF8FA2204000D009200002330007F
:100C0000002103F0FBFA001969418D4205D802D09A
:100C1000FFF78AFF70BD8442FAD901204042C11714
:100C2000F6E7C046F0B5C64600B5EFF305833F22B0
:100C3000134018001038EFF3108772B61F4D2A6862
:100C4000002AFCD0BFF35F8F01221100814088464B
:100C500044461B494C631B4C2678A4463400C440D0
:100C6000224015D04C6A1849820051588C4217D343
:100C7000164BD25843469E4363461E70BFF35F8FA8
:100C800000232B6087F31088002A06D0904704E0E9
:100C9000BFF35F8F2A6087F3108804BC9046F0BDD5
:100CA0000B4A9B00944663441A681A60BFF35F8F37
:100CB00000232B6087F31088EFE7C046280100D09F
:100CC00000400540381C0020201C0020841B002010
:100CD000D03F054010B50100024A0348FFF7CAFBA8
:100CE00010BDC046A0550010361C0020044A516AB1
:100CF00000E01900906A536A9942FAD17047C046E1
:100D000000400540064A536A9942FCD807D1044B7B
:100D100002E05A6A914202D19A6A8242F9D370473C
:100D20000040054070B504000D00EFF3108672B668
:100D30001A4A1368002BFCD0BFF35F8F002D1BD025
:100D4000200000F047FE164988420AD0200000F03B
:100D500049FE0121200000F02BFE0123A340114A8F
:100D60001360114BA400E550BFF35F8F00220B4BC3
:100D70001A6086F3108870BD0B4BA200D55001227B
:100D8000A2400A4920000B7893430B70044900F0FD
:100D900053FE0021200000F00BFEE5E7280100D003
:100DA000250C001038600540841B0020381C0020F2
:100DB000F0B5D6464F464646324CC0B5656A00E0AF
:100DC0000D00A66A616AA942FAD1AB4209D806D0E1
:100DD000012420001CBC90469946A246F0BDB242B8
:100DE000F6D9EFF3108972B6274C21680029FCD0A0
:100DF000BFF35F8F0126254986408C460978244D34
:100E00000F0037438846F9B28A46614654460C7053
:100E10001C49041DA4004E636250840063510D6A96
:100E2000002435421AD04D6A00E025008F6A4C6AD2
:100E3000AC42FAD1AB4219D801D1BA4216D8C24558
:100E40001DD0104B134A1E625E631F2318401E3BC9
:100E5000834013606346424601241A70BFF35F8FDC
:100E60000022094B1A6089F31088B2E70024BFF30F
:100E70005F8F0022044B1A6089F31088A9E70124D0
:100E8000ECE7C04600400540280100D0381C002097
:100E9000201C002080E200E010B5EFF3108472B651
:100EA0000A490B68002BFCD0BFF35F8F01238340FE
:100EB000074A0848136202789A430270BFF35F8FB3
:100EC00000230B6084F3108810BDC046280100D0B9
:100ED00000400540381C0020024B9C4661448900BC
:100EE000016070474000003410B50400FFF7FAFAC3
:100EF00001002000FFF7F0FFFF23A380BFF35F8F07
:100F000010BDC04610B50400FFF7ECFA0100200048
:100F1000FFF7E2FF01235B42A380BFF35F8F10BDA9
:100F200070B506000D00140000291ED0002A1ED046
:100F300073688068984763006A001B195219033B65
:100F4000033A3168002808D0CB188A189D701178B0
:100F500000290ED11470280008E08A18CB1894706C
:100F60001978002900D051701D70200070BD080054
:100F7000FCE7597028001470F8E7C046F0B5DE466B
:100F800057464E464546E0B58360002389B042602F
:100F9000026806914373C9B20133059101738373EB
:100FA000C1730492012900D8A4E00A004B1ED9B2F3
:100FB000931E0791072B00D8AEE00025CB080393C2
:100FC000049B564C591C564B56489B46564B9A46CA
:100FD000564B9C46564B0293524663465F465E46CE
:100FE00062401A40504B2740FB185A400640534677
:100FF00001966646434033404B4E0A70B046019E10
:101000000135B146C844464673401604360ECE70CC
:101010001602120E4A721A04120E0B73CA731A02C7
:101020001B0E4B75029B360E5C4063461C40404BCA
:10103000120E9846029B47445840634618404B4660
:1010400043445840039BEDB28E718A747C40183142
:10105000AB42C1D1079907230A009A43531CDBB264
:10106000914247D0049C5A00A446D218591C6244AD
:10107000059DC9B2033A51708D423BD94A005218BE
:10108000981C6244C0B2033A5070854232D9420083
:101090001218D91C6244C9B2033A51708D4229D941
:1010A0004A005218181D6244C0B2033A507085427B
:1010B00020D942001218591D6244C9B2033A517036
:1010C0008D4217D94A005218981D6244C0B2033AA3
:1010D000507085420ED942001218D91D6244C9B21F
:1010E000033A51708D4205D94A0052186244033ABE
:1010F00008335370FF23069A13405900C918049B04
:101100009C460023614403394B7009B03CBC9046B7
:101110009946A246AB46F0BD0123A3E701020304B2
:101120007F7F7F7F050607080101010180808080A5
:101130000808080870B50400002907D04B000068B3
:101140005B18033BC3185A78002A01D1080070BD10
:101150005500AD18033D40190025467845705D7077
:101160002000FFF7DDFE310005002000FFF7E2FF61
:10117000290002002000FFF7D3FE0100E6E7C04689
:10118000F0B54E464546DE465746E0B50E007400C3
:101190000168A41985B0033C01920A190500107872
:1011A00000284CD043001B18033BCB185F78BC468B
:1011B000002F16D1019C002C3ED0EC7B002C04D0DB
:1011C00063001B19CB18033B5E70EE7300282FD110
:1011D0000023537005B03CBC90469946A246AB46EE
:1011E000F0BD7A006244033A89184A789346002297
:1011F0004A7090465A7001003A002800FFF790FEAE
:101200005B468146002B07D05B0029685B44033BAB
:10121000CB185A78002A16D15A4649462800FFF7BB
:101220007FFE2968019B0A19002BC6D10028CFD068
:1012300043001B18033BCB1800219970C8E7019BA2
:10124000002BBAD1C4E75000801803380918487839
:10125000824640464870587059462800FFF760FEA5
:1012600053468346002B07D05B0029685344033B59
:10127000CB185A78002A06D1594652462800FFF763
:101280004FFE8346C8E750008018033809184046CF
:101290004F7848705870514628000297FFF740FE7B
:1012A0008246002F08D0BC467B0029686344033B7C
:1012B000CB185A78002A06D15146029A2800FFF727
:1012C0002FFE8246D8E750008018033809184046A0
:1012D0004F7848705870029928000397FFF720FE56
:1012E0008046002F08D0BC467B0029686344033B3E
:1012F000CB185A78002A06D1039A41462800FFF7F6
:101300000FFE0290D8E7032050430338091800204D
:101310004F784870587003992800FFF701FE390094
:1013200002902800FFF706FF029902002800FFF74D
:10133000F7FD0390E0E7C046F0B54E464546DE4671
:101340005746E0B5467B050074000068A419033CCD
:1013500085B002190191117800294ED04B005B181D
:10136000033BC3185F78BC46002F18D1019C002CAA
:1013700040D0EC7B002C04D063001B19C318033B46
:101380005E70EE73002931D1002330005370697311
:1013900005B03CBC90469946A246AB46F0BD7A00EB
:1013A0006244033A80184278934600224270904685
:1013B0005A7028003A00FFF7B3FD5B468146002BC8
:1013C00007D05B0029685B44033BCB185A78002A9E
:1013D00017D15A4649462800FFF7A2FD019B01009C
:1013E00028680219002BC4D10029CDD04B005B180E
:1013F000033BC31800209870C6E7019B002BB8D1AF
:10140000C2E75000801803380918487882464046E1
:101410004870587059462800FFF782FD53468346AE
:10142000002B07D05B0029685344033BCB185A7844
:10143000002A06D1594652462800FFF771FD83461F
:10144000C7E7500080180338091840464F784870A5
:101450005870514628000297FFF762FD8246002F20
:1014600008D0BC467B0029686344033BCB185A78FC
:10147000002A06D15146029A2800FFF751FD824604
:10148000D8E7500080180338091840464F78487054
:101490005870029928000397FFF742FD8046002FFD
:1014A00008D0BC467B0029686344033BCB185A78BC
:1014B000002A06D1039A41462800FFF731FD029029
:1014C000D8E7032050430338091800204F784870AC
:1014D000587003992800FFF723FD39000290280077
:1014E000FFF728FE029902002800FFF719FD03907C
:1014F000E0E7C04670B5040000292CD0437B8B4246
:101500002ED0056848004018033828188278002A31
:1015100021D053009B18033BEB181A788A4202D162
:101520001BE0002A08D053009B18033BEB185A78A5
:101530008A42F6D142785A700023012283704370A8
:101540002000FFF71DFE617B02002000FFF7E8FC92
:101550006073012000E0002070BD42781A70EBE754
:1015600001221900FFF70CFE60730120F4E7C0466A
:101570002F4B304A70B51A602F4A304B30491A60F1
:1015800010008B689843FBD12E4C2F4B9C4209D204
:10159000013B1D1BAD080135AD002D1908CC984746
:1015A000AC42FBD100F09EF8284A244B1A60244A32
:1015B0009368DB018033FBD14022254B254C9A6791
:1015C0005A671A67DA66244B9C4214D2013B1D1BF2
:1015D000ED080135ED002D1904E00834FFF792FC09
:1015E000AC4208D063792000002BF6D10834FFF715
:1015F0007BFCAC42F6D1194C194DA168C0222800E1
:1016000002F06EFEA560FEF75FFF00F04BFBFFF7F8
:101610008BF9144C144B9C4209D2013B1D1BAD08A5
:101620000135AD002D1908CC9847A542FBD170BDFE
:1016300000E00040BFCDFBFEFE7F3C0000F000401C
:1016400000C00040181A0020281A0020FFFFFF01E8
:1016500000F00140101A0020181A002000ED00E0F0
:1016600000000020281A00202C1A002000BEFDE7F0
:10167000094A1368002B06D008491818884208D870
:10168000106018007047064B044918181360884210
:10169000F6D901235B42F4E7041C0020000004207B
:1016A000481E002000BEFDE70FB400B5084883B017
:1016B00002F08EFF049B002B07D005A918000191B2
:1016C00001F0C4FE034802F083FF00BEFDE7C04600
:1016D000D0550010E055001010B50148FFF7E4FFA9
:1016E000C455001030B50C2083B000F049FBFEF764
:1016F000E3FE00280ED0944B944A1A605A609A6018
:10170000DA601A615A619A61DA611A62904A5A6221
:1017100003B030BD8F4CA06700F03AFB01228E4B26
:101720001A60636C012BFCD103228C4B1A60894A2E
:10173000936B012BFCD102240533894A012189488E
:10174000009400F0CBFA0523874A009401218748D2
:1017500000F0C4FA864B5A68FF2A02D88022520051
:101760005A608022784C7D4B21691201804D1A60AD
:10177000002905D0606901F0DFFE01300138FDD19C
:10178000E0217B4B02201A681140802252012A433B
:1017900011601968484003210140116004219A68D2
:1017A0001142FCD08022802192012A43090111605C
:1017B000802252005A606F4B23616F4B5968FF299A
:1017C00000D85A6003226C48634B01211A60020062
:1017D00093681942FCD0E02513681D4080235B010B
:1017E00003431D6012684A40032111401960022121
:1017F000614A93681942FCD0802380219B010343F6
:101800000901196080215D4B4900516063615C4BA7
:101810005A68FF2A00D8596080225A4BE1691201A8
:10182000574D1A60002905D0606901F085FE01302E
:101830000138FDD1E02252490B681A4080235B0138
:101840002B431A60802380229B012B4312011A60D4
:1018500080223E4B52004A60E3614B4B5968FF299E
:1018600000D85A608022494B216A1201464D1A6005
:10187000002905D0606901F05FFE01300138FDD11B
:10188000E02241490B681A4080235B012B431A6018
:10189000802380229B012B4312011A6080235B006E
:1018A0004B602A4B3A4A23623A4B5968914201D81D
:1018B00001325A608022384B616A1201354D1A603C
:1018C000002905D0606901F037FE01300138FDD1F3
:1018D000E02230490B681A4080235B012B431A60D9
:1018E000802380229B012B4312011A608023DB029C
:1018F0004B60174B6362294B5A68FF2A02D880223B
:1019000052005A608022264BA1691201234D1A60B1
:10191000002905D0606901F00FFE01300138FDD1CA
:10192000E0221E490B681A4080235B012B431A609A
:10193000802380229B012B4312011A6080235B00CD
:101940004B600E4BA361E3E6941B0020006CDC02AD
:101950001BB70000008000403CB0004030B00040A9
:10196000002F68590080024000389C1C00C00240D3
:1019700030800040001BB7003C8000404059730796
:101980005480004054B000406080004060B000408F
:10199000FFFF03006C8000406CB0004048800040B6
:1019A00048B00040014B8000C0587047941B002095
:1019B00001238340002904D0034A1360034A1360C3
:1019C0007047034A1360FBE780E200E000E100E0BB
:1019D00080E100E0024B10309B688000C0587047E7
:1019E00000ED00E070B50D00EFF3108672B60F4AFF
:1019F0001368002BFCD0BFF35F8F0D4B10309B683A
:101A000084001B590B4A934203D09D4201D0FFF73B
:101A100063FE074B9B681D51BFF35F8FBFF35F8F62
:101A20000022024B1A6086F3108870BD240100D09A
:101A300000ED00E0CD010010F0B54546DE4657460A
:101A40004E46E0B50D0083B0EFF3108A72B65B4AE4
:101A50001368002BFCD0BFF35F8F102291468144A6
:101A60004A46574B96009B689C59564B98469C4259
:101A700005D0AC4216D0544FE31B2F2B14D9504B3A
:101A80009B689C51BFF35F8FBFF35F8F00224B4B6E
:101A90001A608AF3108803B03CBC90469946A2466F
:101AA000AB46F0BD1C00EAE7012383409B465A4643
:101AB000464B1B681A4000925A46454B1A60BFF3CA
:101AC0005F8FFEF7D0FB0190002803D0814501D045
:101AD000FFF702FE0123220006209A431300DB1BBE
:101AE0005B4142495943090D93688C4610569D420B
:101AF0000AD14EE043001B1806209B00FB18996892
:101B00001856A9420FD01A000028F3DA009B002BC8
:101B100005D05A462F4B1A602C4B1A60AFE75A4635
:101B20002B4B1A60ABE7002821DB4200111889001B
:101B30007D188846A9689960E979D97106216956A6
:101B40009971002922DBAD88F91A6D052D154544E0
:101B50004919E0250905490D2D02294399801218DC
:101B60001D4B9200BF181A781870BA71CEE7019910
:101B7000002914D1002A1FD0FF20907117489080AF
:101B8000154A1078987163461370BFE7BD210902AA
:101B9000E4E713000028C8DA019A002A0CD0104AA2
:101BA0001049D21A083A5002400D014399800E495B
:101BB00052080A43DA80A9E74446E1E7240100D04D
:101BC00000ED00E0CD0100103C11002000E100E03C
:101BD00080E100E080E200E0371C002000BDFFFF54
:101BE0007611002000F0FFFF00F8FFFFAAAA000016
:101BF000F8B5012504000543FEF735FBEFF3108629
:101C000072B6214A1368002BFCD0BFF35F8F1F4AC6
:101C10002100891A4941224B4B431B0D1C4980006E
:101C20008F685BB23F58AF421CD006215156994293
:101C30001CD012215156994222D01E215156994250
:101C400020D02A2151560320994210D0114A1178F0
:101C50001370A171BFF35F8F00220B4B1A6086F3E4
:101C60001088F8BD8A680C491150EFE70020410048
:101C7000091889005218FF21917108499180E5E700
:101C80000120F4E70220F2E7240100D03C110020FB
:101C900000ED00E0371C0020CD01001000BDFFFF6B
:101CA000AAAA0000F0B500220324FF278026200006
:101CB0003D00094B11009C461040C0008540A143E7
:101CC00061440B680132AB43350085402B430B6008
:101CD000202AECD1F0BDC04600E400E0F8B50400D5
:101CE0000C201E0017000D0001F026FC4201121A04
:101CF0009101891AC90009188901380001F01CFCFA
:101D0000069B226836041B033343002A21DB184A52
:101D1000184EA21851424A41802149018C46524234
:101D20000A40154962440A6014490A601700B16804
:101D30008F43FBD1C021221D89011143212225603F
:101D4000A0600A602268002AFCDAE36008230B60C6
:101D5000F8BD3F2221680A40AA42D8D1A2681205E4
:101D6000120D8242D3D1E268002BD0D1F0E7C046F9
:101D70000040FDBF00C0004000E0004000F0004017
:101D80008023024A9B000343D362704700800540D2
:101D9000AA23064A1B0113602F230549D360054B74
:101DA00019605368002BFCDA7047C04600400240BF
:101DB00000B0FA00006002407047C046F8B55746D0
:101DC0004E464546DE46E0B599460A9B07009A46D0
:101DD0000D9B884693460B9E15009B070FD10C9BCD
:101DE0009E420CD29D1B0E005D44541C4B4631009C
:101DF0002020B8472200A542F7D1B0460B9E002E06
:101E000028D04446AD195346AA1B013E985D2100D7
:101E10004B46B847002EF6D123002C0098460D9B68
:101E20009B0710D55B46E51A0C9BAB420BD9464687
:101E30002200984601344B46310020200135B84736
:101E40002200A845F6D820003CBC90469946A24600
:101E5000AB46F8BD2C00E2E7F0B54F464646D64605
:101E6000C0B584B098460EAB1B7894469946129B39
:101E70000D9C109F119E9A0724D401221A4092466D
:101E8000002E62D1BC420CD21F2C00D9B8E00C9AB3
:101E9000551E302201E0202C03D001342A55A742E0
:101EA000F9D85246002A0DD0A6420BD9202C5AD080
:101EB0000C9A551E302201E0202C54D001342A55B2
:101EC000B442F9D1DA0632D55A0555D4002C4FD197
:101ED0000F9A102A00D18CE0022A00D17EE0302235
:101EE0000C9C22704A460124002A25D02D220C9DEC
:101EF0002A55013403930C9B0296009301944346A8
:101F00006246FFF75BFF04B01CBC90469946A246B0
:101F1000F0BD202CEED00C9A1519013478222A70CD
:101F2000202CE7D030250C9A121915700134202C82
:101F3000E0D04A46002AD9D15A0728D41A07D9D561
:101F400020220C9D2A550134D4E7002A24D04A4689
:101F5000002A28D10C321A4225D1BC42A4D21F2C0F
:101F600095D9202E1DD92024DA06C3D55A0503D4CD
:101F7000A7421AD0B44218D00F9A102A1FD0022AB2
:101F8000CED1202CB6D00C9A121901342EE02B227F
:101F90000C9D2A550134ADE7BC4293D21F2C00D8CA
:101FA00075E720248EE7013ED7E7621E002A10D095
:101FB0000F9D102D2DD0022D15D01400B2E79A06DA
:101FC000A7D5202C96D058250C9A121915700134DB
:101FD000A6E70F9C102C15D0022CEED162220C9C8F
:101FE000227001249EE70C9DAA465244622515707A
:101FF00096E79A06E7D478220C9C2270012491E798
:1020000020244EE79A06F6D558220C9C2270012413
:1020100088E7023C9D06D6D40C9D2D1914007DE75F
:1020200010B5002800D110BD02F066FAFBE7C046EB
:1020300010B5002803D04A680B681100984710BDFE
:10204000F0B5454657464E46DE46E0B59BB0249D6A
:10205000259C82468846099299462A00230028003A
:10206000210001F030FD002800D0CBE00122D94B47
:1020700052422800210001F021FD002800D0C1E0DB
:102080000122D54B52422800210001F009FD002811
:1020900000D0B7E0002200232800210001F000FD5D
:1020A000002800D0EDE1AB4608948023289ADB009D
:1020B0001A40119201D1062326935B460C9380238C
:1020C0005946289A1B011A40089B10920B4300D0D6
:1020D000AFE0002A00D0BFE104260D930E930C93CD
:1020E00000230A93279BB34201D99B1B0A93022723
:1020F000289B1F4005D0734273410A9A5B421A40E5
:102100000A920C9B002B07D0584608990D9A0E9BFB
:1021100001F065FC8346089100220023280021007D
:1021200001F0BEFC002805D08020000684460899F6
:1021300061440891289AA94B414613405A4604939A
:102140000A9B50460393269B0293089B009201939F
:102150004B46099A00F0A2F9002E63D0289B02009A
:102160009C061F23E4179C436534431C08932000FE
:102170004B464146D0470C9B0024DA179D18DB0FD5
:102180009B46731E55400C9302E00500202C11D095
:102190000AAA94461F23013463440A2128001E1909
:1021A00001F0CAF93031317028000A2101F0C4F978
:1021B000092DEAD8052306930C9B0194059300236F
:1021C00004930A3303935B46029312AB0093089A7D
:1021D0004B4641465046FFF73FFE002F22D0099B59
:1021E000C41A279BA3421DD9020057461E00551C46
:1021F0004B46414620200134B8472A00A642F6D873
:1022000028000FE0289B2A000493279B4146039354
:10221000269B504602932300009201934B46099A55
:1022200000F03CF91BB03CBC90469946A246AB4638
:10223000F0BD6B4A089B94465800400D604401F085
:1022400055FC684A684B01F0E8FB684A684B01F0AE
:10225000BDFB089B674A1B031B0B1A4306000F00BC
:102260000C981100644B002201F0A7FB634A644BF9
:1022700001F0D3FB02000B003000390001F0A6FB97
:1022800001F04CFC0C9001F031FC5E4A5E4B060004
:102290000F0001F0C2FB00225C4B01F097FB01F044
:1022A0003DFC5B4A5B4B0D903900300001F0B5FB03
:1022B00006000D980F0001F019FC574A574B01F02A
:1022C000ACFB02000B003000390001F076FB02008D
:1022D0000B000A900B9101F0A0FB06000F000A987A
:1022E0000B9902000B0001F071FB00220E900F9180
:1022F0004B4B3000390001F072FB0022494B01F0DA
:1023000065FB02000B003000390001F068FB002281
:10231000454B01F05BFB02000B003000390001F07F
:102320005EFB0A9A0B9B0F0080210600C905002066
:1023300001F043FB02000B003000390001F046FBC6
:102340003A4F02000B000E980F9901F048FB002253
:10235000284B01F03BFBBC460D9A6244160000225C
:10236000330501F05AFB07000D900E000E9102009C
:102370000B005846089901F093FB00285ED13B0002
:102380003200C6260C9963318E42B64110997642CE
:102390000436002900D1A3E6134361D0089F244AE4
:1023A000244B5846390001F081FB002807D0002259
:1023B000214B5846390001F073FB002850D1269B71
:1023C000002B00D18CE6119B5A1E9341269AD31AFA
:1023D000269385E6FFFFEF7FFFFFEFFFFFF7FFFF8D
:1023E00001FCFFFFFB799F501344D33FB3C8608BC0
:1023F000288AC63F0000F03F0000F83F61436F634A
:10240000A787D23F71A379094F930A400000E03FAC
:102410001655B5BBB16B0240EF39FAFE422EE63FCE
:1024200000002C400000244000001840FF03000082
:102430002D431CEBE2361A3F80842E410C9B002278
:10244000013B0C930D98144B0E9901F0C8FA030050
:102450000D900A000E9194E700230D930E930C93B8
:10246000269B19000C9B994213DDCB1A013B269346
:102470008023289ADB001A430023289200260C931D
:102480002EE680231B069C46A4446346AB46089375
:102490000BE600232693EBE700002440F0B5DE4670
:1024A00057464E464546E0B597B080468946924627
:1024B0009B46209A219B1000190001F004FB002884
:1024C00000D01FE2209821990122CC4B524201F00A
:1024D000E7FA002800D03EE1209821990122C84B5C
:1024E000524201F0EBFA002800D0E7E02098219951
:1024F0000022C44B01F0E2FA002800D0C7E0209887
:1025000021990022C04B01F0CBFA002800D0BEE098
:10251000209821990022002301F0C2FA002800D05F
:10252000E1E0002380240D93249BE4001C4000D0B4
:10253000E9E000220626B54B069207930EAB0893FE
:102540002098219901F0EAFA07000C9001F0CEFAE8
:1025500002000B002098219901F02FFA069A079BA0
:1025600001F05BFA0A900B9101F0FCFA050009906A
:1025700001F0B8FA02000B000A980B9901F01DFA5D
:102580000022A34B0A900B9101F098FA002800D189
:1025900048E12B0001331800099301F0A3FA069AD1
:1025A000079B01F083FA002804D03B0001330C9311
:1025B00000230993002E00D0D5E00C9D280001F0E7
:1025C00095FA02000B002098219901F0F6F90022FB
:1025D0008F4B06000F0001F063FA002808D100229B
:1025E0008B4B3000390001F069FA002800D17EE100
:1025F000202C00D1FAE00C9F0A21380000F074FF73
:10260000089E3031315538000A21651C00F06CFFFE
:10261000002800D180E1202D00D1E7E00A2100F060
:1026200063FF303171553800642100F05DFF0234E2
:10263000051E14D0202C00D1D8E008AA94461723F8
:102640002800634401340A211E1900F04DFF303187
:10265000317028000A2100F047FF051EEAD103234C
:10266000249A1340012B00D1ECE0202C00D1C2E0D1
:102670000D9B002B00D111E12D23089A651C1355E9
:10268000249B01950393239B0293089B20E0249BAA
:1026900052460493239B49460393229B4046029350
:1026A000209B219C009301945B46FFF7C9FC17B067
:1026B0003CBC90469946A246AB46F0BD249B5B07C6
:1026C0000ED40322534B2499019203912399029132
:1026D000009352465B4649464046FFF76FFBE6E7EC
:1026E0004D4B0422EFE7209A219B0020002101F0AE
:1026F00064F9012380240D93249BE4002090219110
:102700001C4000D115E7229B092B00D808E11900D5
:1027100030230EAA4E1E08921370092E00D1F9E044
:10272000537008AA0C0094468E1E1721093C022300
:102730006144302205E00133CA54013E202B00D110
:10274000A3E09C42F7D1354BF2009B181A685B68F6
:1027500006920793F4E6249B0393239B029304239E
:1027600001932F4BB4E7202C40D0099D731E0A2102
:102770002800069300F0E0FE089B30311955280030
:102780000A2100F0D9FE671C0995092D00D892E0B6
:10279000202F2BD0B11E06910A2100F0CDFE089B00
:1027A0003031D9550998642100F0C6FE099AA51C5C
:1027B0000700632A00D87FE03419013C14E0631B52
:1027C00008AA069394461723013563440A2138006A
:1027D0005E1900F0B1FE3031317038000A2100F08E
:1027E000ABFE092F68D90700202DE8D10323249AD6
:1027F0001340012B25D0202542E7C046FFFFEFFF05
:10280000FFFFEF7F65CDCD4165CDCDC180842E41E9
:102810000000E03FC4570010C8570010E0570010F8
:10282000D457001000220A980B99494B01F038F94F
:10283000002800D0BEE62B1E60D1099B013309930E
:10284000B8E62024239B002B00D10EE70D9B002B24
:1028500003D1249A0C33134202D0239B013B2393D0
:10286000239BA34200D800E708AA944617233022EE
:102870006344202CBFD0239901341A558C4200D1D7
:10288000F3E6202CF7D12025FAE6324BF2009B1814
:102890005C681B6806930794202451E6249B5B0721
:1028A00020D4249B25001B0700D4E9E62023089AA6
:1028B00001351355E4E63D00202D97D008A98C463C
:1028C00017230698634442193021002826D0013589
:1028D0005955202D30D0AA42F9D12E230899541CE5
:1028E0008B5485E62B23089A651C1355C8E60123F3
:1028F000AC462B409C4463460C9379E6DB0700D43E
:1029000058E69AE7249B0393239B029303230193A6
:10291000114BDDE6012416E72C00A0E62A00DCE7D7
:10292000DA001E000B4B9B185C681B68069307942B
:102930000EAB0024089303E60323249A1340012BD3
:1029400000D09DE6239B002B00D199E620247DE753
:102950000000E03FE0570010D0570010F0B54546AA
:10296000DE4657464E46E0B5A1B01D002A9B904674
:102970000B93BD4ABD4B0A908B461A60002900D1CB
:102980000DE2002328789A46002861D0B84B5646BD
:102990009946C24609E0741C320053460A9E5946C5
:1029A000B04726002878002850D001352528F2D1DC
:1029B000042328789846023B9C460300203B691C70
:1029C000DBB200240A00102B0ED84F469B00FB58A8
:1029D0009F4601230D001C432878691C0300203BFF
:1029E000DBB20A00102BF0D90300303B092B41D990
:1029F00000272A286AD000230C932E2851D00300E8
:102A0000683BDBB2122B5FD89A499B00CB589F469C
:102A100063460D001C43DFE743460D001C43DBE724
:102A200010230D001C43D7E708230D001C43D3E7F8
:102A300080235B0068781C43551C0300253BDBB2F8
:102A4000532BA8D88C4A9B00D3589F46D046B246F9
:102A50005246D04501D843465A1E434659460020A7
:102A60000A9CA047504621B03CBC90469946A246DD
:102A7000AB46F0BD0027030001E00D000131B800B6
:102A8000C0194000C0180B7830381A00303A0700DF
:102A9000092AF2D918000023AA1C0C930D002E2835
:102AA000ADD180236878DB001C430300303B092B49
:102AB00000D877E12A2800D1ABE10300683BDBB204
:102AC00015000132122B9FD91500B6E70B9B80CB66
:102AD000002F00DA5BE16878AA1C0B930D008AE7EF
:102AE00068786C2800D14DE280235B001C43551CA4
:102AF000A3E780239B0068781C43551C9DE76878FA
:102B0000682800D139E28023551C1C4395E70B9BB4
:102B100004CB98460C9B0B921078002B00D0A2E1BE
:102B2000002801D100F071FC02235B425A1C0B9B70
:102B3000944619000D92614401E08B4206D00133A6
:102B40001A78002AF9D10B9A9B1A0D938023DB0087
:102B500023400E9305D00D9B19000C9B994200D980
:102B60000D93022323400F9300D140E2002800D1AF
:102B700026E20E9B002B00D1E6E141460C9B0C9116
:102B800029009C190B9B5D469B1B3200B8460B939A
:102B90008B460AE0534629000A9F561CB8470B9BF8
:102BA000985D002800D104E232009442F2D10C9BDF
:102BB000474698465B462600AB461D000F9B002B00
:102BC00000D0FDE143460B93ECE60B9B04CB0B934B
:102BD000002A00D128E121231C43A44610A98846DD
:102BE0001F240F2144440023884603E0202B00D1FA
:102BF00024E10A0041461140CFB23800373009299C
:102C000000D807380133E05411090F2AEED815E136
:102C10000B9B04330C93731C0D939846A30700D4AD
:102C200006E20B9B32001878594653460A9CA0478F
:102C3000BE19012F00D8A7E22B0042465546B046E8
:102C40009A465E460A9F541C2B0031002020B8474C
:102C500022004445F7D15346B346AA4626001D003C
:102C60000C9B0B939EE6C0465D290010081C0020BB
:102C7000E45500102856001074560010782800D132
:102C800052E2582800D183E16F2800D1F3E0622896
:102C900000D156E3102322009A438023DB000D92DB
:102CA0002340692800D0BCE30A220E92002B00D1F9
:102CB00046E201230D9A9A430D9280240D9BA400B5
:102CC00023409C46692800D1E7E0642800D1E4E075
:102CD0006346002B00D094E280230D9A5B001A40DB
:102CE0000B9B904604330F93002A00D02CE30D9BDE
:102CF0005B0600D544E20D9B1B0600D488E30B9BCA
:102D00001B881800031E00D04DE20D9A10331100ED
:102D100099430D91520500D445E2002398460D9B3E
:102D2000059706930C9B04930E9B03930023029339
:102D30004346019318AB00933200534659460A9814
:102D4000FFF78AF80F9B06000B932BE6462800D16D
:102D50008EE007220B9B04940733934319000C9ACF
:102D6000039702920CC90A98009201930B913200CA
:102D700053465946FFF792FB060013E6741C3200D7
:102D800053460A9E59462520B04726000AE60222ED
:102D9000687814437F42AA1C0B930D002BE6D34B9B
:102DA0000A93EEE50023010000E02A009800C01815
:102DB000400040185178030008003038551C303B63
:102DC0000928F2D90C930800023218E620230200E9
:102DD0009A43472A04D180231B011C4302239843B2
:102DE000452801D120231C4307220B9B0494073361
:102DF000934319000C9A039702920CC90A98009207
:102E000001930B91320053465946FFF719F906001A
:102E1000C8E50B9BA87802CBCA43D21711400C918E
:102E2000EA1C0B930235EAE5102321009943113384
:102E300019438C460023610500D4CFE66246069212
:102E4000082205920C9A0492102203920022029208
:102E5000019318AB00933200534659460A98FEF787
:102E6000FBFF06009EE5002800D1CDE2013B5DE6B8
:102E700020231C436DE708230E9322000D9480232A
:102E8000DB001340642800D0CEE2002B00D010E716
:102E900080241300A40023409C466346002B00D0EE
:102EA000E5E080230D9A5B001A400B9B90460433AB
:102EB0000F93002A00D0C6E10D9B5B0600D547E1C9
:102EC0000D9B1B0600D499E20B9B00229B5ED91739
:102ED0005A184A401000DA0F1492002B09D18023AF
:102EE00010220D99DB000B4091430D91002B00D077
:102EF00050E10D9A6123920600D5412310AA1F24A8
:102F00009446DBB264440A3B159716960B934646EB
:102F10000700A84625000E9C0AE03033DBB20136DC
:102F2000AB55A74200D231E1202E00D12EE107009F
:102F30002100380000F000FBCBB20929EDD90B9A33
:102F400094466344DBB2EAE70B9B32009E1B3300DE
:102F50005E46AB4655469A460B970A9F2B003100BA
:102F6000541CB8475346185D22000028F6D1AA46E3
:102F70000B9F5D46B346260020E6C023A8781C437D
:102F800003355AE5C0239B00A8781C43033554E55C
:102F90000C2322009A4314331A430D92630500D583
:102FA000D3E080239B001C40F13BFF3BA4460E93E3
:102FB0008EE60C9B474698465B46AB461D00FDE5FA
:102FC0000D9B32009F4200D8FCE5BE19F61A2B007B
:102FD0005D469B460A9F541C534629002020B84753
:102FE0002200B442F7D15B46AB461D00EAE50D9ADC
:102FF000531C974200D812E2BB199B1A0D971F0071
:1030000032005E46AB460A9D541C534631002020D8
:10301000A8472200BC42F7D15D46B34626000D9F6B
:103020007B1C0D930B9B1878002800D0A1E5C9E507
:10303000012F00D8F0E1731E3200A846DF190A9E66
:103040005D460D9C00E00134534629002020B04726
:103050002200BC42F7D12600AB46454601360B9B09
:103060003A001878594653460A9CA047F8E50722CB
:103070000B9B07339343013294469C4462460B9268
:103080001A685B689C46DB17129313931298139986
:1030900003005340109364460B0063401193109B50
:1030A000119C1B1A8C41109311946346DB0F1493EF
:1030B00063461A4350D00D9A6123920600D54123EE
:1030C0000022DBB2904610AA0A3B1F2494460F93BD
:1030D0005B4664441793230015971696AB46109EE3
:1030E000119F44460E9D984610E0C046B91D001041
:1030F0003032D2B2434601341A550023BB4200D1CC
:1031000067E1202C00D167E106000F002A000023B0
:103110003000390000F052FAD2B2092AE8D90F9BE8
:103120009C466244D2B2E5E780231022DB002340B4
:103130000E920C2294430D94002B00D1BDE5B8E50E
:1031400080239B001C40A446A7E610230E93B0E505
:103150000B9B1B781A00BDE60D9A102311009943B2
:103160000D915205A7D5002398460D9B0597069310
:103170000C9B04930E9B0393149B0293434667E6B8
:103180000B9B1B781800BDE50D9E69E54546159F14
:10319000B046169E0D9B059706930C9B04930E9BC1
:1031A0000393149BC3E50D9A6123920600D5412336
:1031B00010AA1F249446DBB264440A3B1497159668
:1031C0000B9346460700A84625000E9C08E03033C6
:1031D000DBB20136AB55A7420ED3202E0CD0070030
:1031E0002100380000F0A8F9CBB20929EFD90B9AD9
:1031F00094466344DBB2ECE74546149FB046159E07
:103200008DE507220B9B07339343013294469C4480
:1032100062460B921A6859681300100009910B431B
:103220005CD10D9A1033110099430D91520555D57B
:10323000002398460D9B059706930C9B04930E9BC9
:103240000393002399E70B9B1B68D9175A184A4030
:103250001000DA0F1692002B08D1802310220D994E
:10326000DB000B4091430D91002B2CD10D9A612373
:10327000920600D5412310AA90461F24DBB2444495
:103280000A3B14971596A8460B932500070066463F
:103290000E9C08E03033DBB20136AB55A7420ED3AB
:1032A000202E0CD007002100380000F045F9CBB2E9
:1032B0000929EFD90B9A94466344DBB2ECE7454603
:1032C000B446149F159E0D9B059706930C9B049383
:1032D0000E9B0393169B029363462AE50D9A612386
:1032E000920600D541230022DBB2904610AA0A3B89
:1032F0001F2494460F935B46644414971596AB467F
:1033000046461693A0460E9D099F04000BE03032FE
:10331000D2B2434601369A550023BB4265D0202ED7
:1033200065D004000F002A0000232000390000F0BF
:1033300045F9D2B2092AEAD90F9B9C466244D2B21F
:10334000E7E702230E9398E50B9B1B68181E08D134
:10335000802310220D99DB000B4091430D91002B2F
:103360002CD10D9A6123920600D5412310AA9046D4
:103370001F24DBB244440A3B14971596A8460B93CE
:103380002500070066460E9C08E03033DBB20136AC
:10339000AB55A7420ED3202E0CD0070021003800D9
:1033A00000F0CAF8CBB20929EFD90B9A94466344CE
:1033B000DBB2ECE74546B446149F159E0D9B05977E
:1033C00006930C9B04930E9B039300230293634686
:1033D000AFE4B54200D894E6179B109611975D466E
:1033E000159F169EA0469B46BFE6A54297D9169B01
:1033F000B0465D46149F159E9B461BE70B9B1B68C2
:10340000D9175A184A4065E500230D93FFF79EFB34
:103410000B9B1B68180075E437000D9E1FE60D938B
:1034200002E60A230E932AE5140082E600B585B071
:103430000391012102900093034813004A4202A91C
:10344000FFF78CFA05B000BD3120001010B5094A15
:1034500084B01468002C09D001220091030052426C
:1034600003A90548A047012004B010BD01F0B0F841
:103470000020F9E7081C0020212000100148042149
:10348000014B184790110020AD340010142310B5E3
:103490000100188804331B88984710BD162310B507
:1034A0000100188802331B88984710BDF0B5C64646
:1034B00000B5002916D014230400012598461827CA
:1034C000890046184346216818883B88984701C4FC
:1034D000431E984140420540A642F3D1280004BC57
:1034E0009046F0BD0125F9E7124A936F9B0815D26B
:1034F0009066D166002905D0FFE7FFE7FFE7516F2F
:10350000106F704704B580210906C217514000288A
:1035100000D0C84302F018F8002104BDF0B5146EC5
:10352000556E576F166FFFF7E3FF146655665767C2
:103530001667F0BD000000D0114A936F9B0813D2AC
:1035400010665166002905D0FFE7FFE7FFE7516FDE
:10355000106F704704B5002801D00020C04301F06F
:10356000F3FF002104BDC046F0B5146E556E576FD1
:10357000166FFFF7E5FF1466556657671667F0BDCF
:10358000000000D094464E4A926F9208624601D2E3
:1035900030E0C046F0B54A4EB56F6D08FCD3346ECE
:1035A000756E776F366F00F025F89446444A1466BE
:1035B0005566576716676246F0BDC0469446404A56
:1035C000926F9208624601D258E0C046F0B53C4E78
:1035D000B56F6D08FCD3346E756E776F366F00F083
:1035E0004DF89446364A1466556657671667624624
:1035F000F0BDC046002B24DB11D000293EDA00B517
:10360000C943404200D1013100F038F8C94340427B
:1036100000D10131DB43524200D1013300BD002A09
:10362000EBD1002801D1002905D00020C90FC9071E
:1036300001D1C043410800B501F07EFF0022002304
:1036400000BD00B500290ADBDB43524200D1013343
:1036500000F014F8C943404200D1013100BDC94314
:10366000404200D10131DB43524200D1013300F02E
:1036700005F8DB43524200D1013300BD002923D1BC
:10368000002B18D1002A0CD0BC460D4F38667A6644
:1036900000210023FFE7FFE7FFE77A6F386F6746F7
:1036A0007047002801D00748010000B501F044FF31
:1036B0000022002300BD02000B0000200021704703
:1036C000000000D0FFFFFFFF002B00D0BDE0130C77
:1036D00026D1002AE7D080B4104F39667A66FFE71A
:1036E000FFE730B4040C7B6F396F1B0423433B6648
:1036F000FFE7FFE7FFE7C04684B27B6F3D6F1B0427
:1037000023433B66FFE7FFE7C04600232C042D0C54
:103710007A6F386F00196941B0BC7047000000D063
:10372000F0B594460025140E01D112020835140F8D
:1037300001D112010435940F01D192000235D40F4A
:1037400001D152000135D40B0134254F7C66254C44
:103750003C660E0C93B2FFE7FFE7FFE73C6F664362
:10376000360C7703BE467343DF0B5B04C01AB941C6
:10377000130C7343DB18C91ACE086643360CB644E3
:1037800093B273431F0F1B01C01AB941130C73434B
:103790001F0B1B05C01AB941860D8F023E436643BD
:1037A000360C092D24DB520A7243801A7703460A2D
:1037B0006643360C16235B1BDE40DF40BF196446B0
:1037C0006643821B7046043506330100D940A84089
:1037D000C01900D30131A24206D20023F0BD00007F
:1037E000000000D0FFFFFFFF121B0130F3D3F1E711
:1037F00009277F1BFE406446A2B27243801A00D2A2
:103800000139220C7243130C1204821A99410B00E5
:103810007046043513370100F940A840801900D3E1
:103820000131002B02D1A2420AD2F0BD013000D3F7
:103830000131121BFAD2013BF8D1A24200D2F0BDF5
:10384000013000D30131121BF7E7F0B51C0C00D09A
:1038500080E00CB400251C0A04D11B02160E334371
:10386000120208351C0B04D11B01160F3343120141
:1038700004359C0B04D19B00960F33439200023514
:10388000DC0B02D192185B4101351C009718644192
:103890000134464F7C66464C3C660E0CFFE7FFE762
:1038A000FFE7C0463C6F6643360C7703BE4697B2CF
:1038B0007743C01B00D20139C01B00D201399FB22F
:1038C0007743C91BC91B170C77437E04FF0B801B72
:1038D000B941CE086643360C0C2D33DBB644120BCF
:1038E0001F053A431B0B97B27743C01B00D2013927
:1038F0009FB27743C91B170C77433E043F0C801BD4
:10390000B941860D8F023E43664329277F1BFE4047
:103910000C3D7746AF40BF1930BCA2B2ABB2724388
:103920007343801A9941220C7243130C1204801ABB
:10393000994102000B000137001BA941F9D2781E02
:103940000021F0BD0C277F1BFE4077467F0BAF4068
:10395000FF19E0E700245D1C07D0144F7D6639662F
:10396000FFE7FFE7FFE7FFE73C6F95B29EB26543D5
:103970006643401BB141150C1E0C6543664336047B
:103980002F0C3E432D04401BB141994204D202004A
:103990000B0020000021F0BD01D19042F7D3801A26
:1039A000994101349942F2D3F6E70000000000D0BB
:1039B000FFFFFFFF48404140484018B41B4B5B6885
:1039C000FC46019308BD04DF573C001018B4174BA8
:1039D0001B68FC46019308BD00DF613C0010944663
:1039E000134A926F920809D2624618B40F4BDB68F3
:1039F000FC46019308BD0CDF193F00100C4AF0B5DE
:103A0000146E556E576F166F6246FFF7EEFF084A49
:103A10001466556657671667F0BD18B4034B9B686C
:103A2000FC46019308BD08DFBD3D0010401C00208E
:103A3000000000D0FFB550404240504059404B403C
:103A4000594000E0FFB5154F4C00640D03D0BC4257
:103A500004D10C0314D80020090D09055C00640D85
:103A600003D0BC4204D11C030AD800221B0D1B0545
:103A700001264B4009D44B4003D58B4200D18242F2
:103A8000FFBD9942FCD19042FFBD0B43DB180343BD
:103A90001343F5D0C9434918FFBD0000FF070000DC
:103AA00000B5FFF7CFFF804100BDC04600B5FFF76E
:103AB000C1FF01D9002000BD012000BD00B5FFF706
:103AC000B9FF804100BD012040054A00121804D80A
:103AD0005A00121801D800207047012070470020BA
:103AE000704700000021002805D17047C1174840E9
:103AF000401AFAD0C90713B5064B1B6898470CBC8F
:103B0000441CA2401005120B0349091B0905194367
:103B1000114310BD401E00201F04000010B54C00D2
:103B2000620D8023D218DB00D21A5B057E2A10DDDD
:103B30009E3A13DACC170903490819435242D1407F
:103B4000640001341532202A05DAD040084360436E
:103B500010BD002010BD0846604310BDC80FC0183E
:103B6000013810BD18B4044B5B6AFC46019308BDD4
:103B700024DF454100100000401C0020132370B5D5
:103B80001D78012D10D00BDD2348FFF787FC234C57
:103B900001008022200000F0A3FB022D01D070BDA7
:103BA0001E4C1F4AA264FAE71C4C1D4AA3085B4244
:103BB0001D402FD02B0022602020A9006118451B3A
:103BC0000A604A608A60CA600A614A618A61CA61A1
:103BD0000A624A628A62CA620A634A638A63CA6381
:103BE0000A644A648A64CA640A654A658A65CA6561
:103BF0000A664A668A66CA660A674A676D08102DB1
:103C000003D18A67CA67A264C9E71E339B00E250EA
:103C1000A264C4E70023CFE753440000401C002007
:103C2000253C001007B5604601880A0A0230DF2AE9
:103C3000FAD1C9B2820804D3028840880004104334
:103C400000E00068014A5050039007BD401C00206E
:103C50000FB403BC0CBCF0B50124E407634000E0E2
:103C6000F0B50C0DCF0F661E3605891B640503D316
:103C7000C943404200D30131640D03D0661CF60AEB
:103C800007D0E41B00207F00791C89078912803C43
:103C900024031D0DDF0F6E1E36059B1B6D0503D320
:103CA000DB43524200D301336D0D03D06E1CF60A84
:103CB00007D0ED1B00227F007B1C9B079B12803DE1
:103CC0002D032F1B661B58D4A446202E46DA20371E
:103CD0001400BC401D00BD40F24033412A4380180F
:103CE0005941CB0F05D0C943C04300226442504123
:103CF000514162464D0D28D10D0D07D100281FD02E
:103D0000241940414941013A0D0DF9D0640006D310
:103D1000013000D30131002C01D140084000013AAC
:103D20000BD4941CE40A04D112051144DB07194496
:103D3000F0BDD907204B194300E0D9070020F0BDA2
:103D40000029DDD1002CDBD1F0BD0132C6074008CF
:103D5000CD0728434908002EE1D0D9E73C2E29DAC7
:103D6000203E40371400BC4000D00124F2401443F0
:103D70001A00BB401C43D317ACE7AC46202F08DA2F
:103D800020360400B4400D00B540F84039412843C6
:103D9000A5E73C2F0CDA203F40360400B44000D0A9
:103DA0000124F84004430800B1400C43C117EAE77E
:103DB00010001900002494E70000F07FF0B50C0D0E
:103DC000661E3605891BE60A6405640D02D0651C73
:103DD000ED0A04D0002001210905803C2403A446FB
:103DE0001C0D671E3F05DB1BE70A6405640D02D04E
:103DF000651CED0A04D0002201231B05803C24032E
:103E00007740644497B484B296B27443070C7E43FF
:103E1000150C6F4380B26843361802D301200004AA
:103E20003F183004350C00197D41844688B29AB29F
:103E300050430C0C62431F0C7C438EB27E4392199C
:103E400002D301263604A4191604170C361867414C
:103E500001BC81B29AB25143040C62431B0C5C4317
:103E600080B25843121802D3012000042418100411
:103E7000130C401863412D185E410020474106BCD9
:103E800088B293B258430C0C6343120C544389B26A
:103E900051435B1802D301210904641819041A0C58
:103EA000091862416D1856410020474118BCF902BB
:103EB000720D1143F0026A0D1043ED020A0D03D199
:103EC0006D1940414941013B124E9B1B7600B342A4
:103ED0000ED26D0007D3013000267141664635438E
:103EE00001D1400840001B05C918E4072144F0BD7A
:103EF0000BDA013306D1013004D101314F0D01D06D
:103F00004908F2E7E1070020F0BD01363105002045
:103F1000EBE70000FF030000F0B51C0D671E3F0536
:103F2000DB1BE70A6405640D02D0661CF60A04D0A8
:103F3000002201231B05803C2403D0252D060026EA
:103F4000F6432E661E096E66CE0FF619B44649007A
:103F50004F0D02D07E1CF60A03D000200021403F06
:103F60003F033E1BB600B444013F7F05C91B49080F
:103F70002E6F013676089C02950D25437543ED138F
:103F80007543AD1301356D10F603761B0CB4CC02EE
:103F9000450D2C43A2B2B3B25A43270C7B43350CD8
:103FA0006F43A4B26C431B1902D3012424043F19AC
:103FB0001C041D0CA4187D4124196D41009A91B276
:103FC000ACB26143170C7C432B0C5F4392B25A4353
:103FD000A41802D301221204BF182204230C521881
:103FE0007B41019C6C431B19520ED9010A434401C9
:103FF000A01A81B2B2B2514303145A43360C734330
:1040000087B27743D617D21900277E4136049B1911
:104010001704160C7F185E417316ED18F301002685
:1040200080337541A90F06D16400690AE8055B0A6F
:10403000184309D22FE00422944480337541A90A21
:10404000A8059B0A184326D3404149412404009AFD
:10405000019B0D005543641B4343E41A95B286B29D
:104060007543170C7E43030C5F4392B25A43B61854
:1040700002D301221204BF183204330C52197B41BF
:1040800052429C41002C02D4002201305141400890
:10409000CA071043490802B06246D7079210084B7E
:1040A000D218084B9A4203D212058918C919F0BDDB
:1040B0000020002A01DC3900F0BD01331905F5E7C5
:1040C000FD030000FE070000624618CA944600295E
:1040D0001ADAC01861415B463B415C46B440524627
:1040E000FA40224344464D4662416B419046994610
:1040F0002B46B3403D41FC401C4352465B46A24127
:10410000AB4192469B467047C01AA1414B463B418A
:104110004C46B4404246FA40224354465D46624112
:104120006B4192469B462B46B3403D41FC401C43AD
:1041300042464B46A241AB4190469946704700200B
:1041400000217047002200B5203200F004F808007A
:1041500000BD000000220B15F1D410B5944600F00C
:104160002FF81414013400DA0021CB17134C204728
:104170006244343A0CD40C2A07DA0400914090408F
:1041800052422032D440214310BDD843D94310BD00
:10419000203207D40C469440524220321141D04084
:1041A000204310BD0800C917203203D452422032E8
:1041B000104110BD1800190010BD00007141001021
:1041C0000A0DCC0F531E1B05C91A520503D3C94350
:1041D000404200D30131520D03D0531CDB0A07D0FB
:1041E000121B00206400611C89078912803A1203A7
:1041F000014BD21A70470000FF03000051434343B4
:10420000C9188C46110C83B24B4310B4040C6143A3
:1042100092B280B2504362431C041B0C001910BCC4
:1042200059411304120CC0185141614470470000F9
:10423000132310B51C781348FFF730F9012C0BD06D
:1042400004DD01008022104800F04AF80F48FFF713
:104250001DF90F4B186010BD0B4C010054222000BB
:1042600000F03EF80B4B6365A365E3652366636668
:10427000A366E36623676367A367E3672362E3617B
:10428000E4E7C04653460000401D00204C330000C8
:10429000401E00209942001007B5604601880A0AB6
:1042A0000230DF2AFAD1C9B2820804D302884088DA
:1042B0000004104300E00068014A5050039007BD1D
:1042C000401D002001480421014B1847A011002087
:1042D000AD340010014B1B6818470000A0110020EE
:1042E000014B5B6818470000A0110020F8B5CE46CE
:1042F0004746814680B50C00151E34DD0A78037CE4
:1043000000200A2A33D0012D1ED01D4B0121671E2B
:10431000984602E03100AE4216D0635C7A5C4E1CD7
:104320000A2BF7D10D2AF5D04B461B68884204DAD8
:10433000091A201898474B461B68022140469847A7
:1043400030003100AE42E8D1854204DD4B46291AE7
:104350001B68201898476419013C23780D3B5A428A
:1043600053414A4613740CBC90469946F8BD002B45
:10437000C9D14B46024802211B6898470120C2E779
:10438000A4580010F8B54746CE460B6880B50C001F
:104390000700802B07D05A1C2260E41827710CBC40
:1043A00090469946F8BD134B1D68002D1BD0124B4B
:1043B00098460B1D994602E0ED68002D13D02E683B
:1043C000002EF9D043461B68002B01D0AB42F3D13D
:1043D0006B7C2268002B09D028004946FFF786FF36
:1043E000ED68002DEBD101220023D5E711004846EE
:1043F000B047E1E7FC1B0020001C0020F0B5DE46C2
:10440000574645464E46D023E0B51B0683B01C6890
:10441000354B01AF80460D001800390091469B4690
:1044200001F09AF88246002808D1019B64B29C42B0
:1044300004D0584601F098F801239A466B1C03D12A
:10444000404600F0EDFE0500284B1C68002C2ED0E5
:104450004B46274EA9461D0002E0E468002C25D0FB
:104460002268002AF9D03368002B01D0A342F4D18E
:10447000637C002B28D04A4641462000FFF736FFD8
:10448000002DEAD00A233B70637C2268002B1FD0EA
:10449000237C002B24D00121380090473B780D3B32
:1044A0005A4253412374E468002CD9D14D465346F7
:1044B000002B11D1681E8541E8B203B03CBC904688
:1044C0009946A246AB46F0BD494640469047D7E7DD
:1044D000012138009047C0E7584601F025F8E9E788
:1044E000022104489047D9E7101A0020FC1B002045
:1044F000001C0020A4580010F0B54646D6464F4692
:10450000C0B582B06B46DD1CD02328701B061C682A
:104510002B4B070001A91800984601F01DF8061E54
:1045200039D0284B1C68002C41D0274B9946274B8B
:104530009A4602E0E468002C19D02368002BF9D0D9
:104540004A461268002A01D0A242F3D1627C002AB6
:1045500016D02A780A2A17D00121280098472B78EC
:104560000D3B5A4253412374E468002CE5D1002EE0
:104570001DD1380002B01CBC90469946A246F0BD41
:10458000012128009847D5E7227C002AE4D10221A6
:1045900050469847E3E7019B64B29C420BD04046EB
:1045A00000F0E2FF074B01261C68002CBDD14046FD
:1045B00000F0BAFFDDE7034B1C68002CB5D1D8E74B
:1045C000101A0020FC1B0020001C0020A458001022
:1045D00070B5040000F024FE012201000500200057
:1045E000FFF70CFF084B1C68002C06D06368002BFB
:1045F00005D09847E468002CF8D1280070BDE46825
:10460000002CF3D1F9E7C046FC1B00200D4B1A68C3
:10461000002A13D0824203D109E0984208D01A0040
:10462000D368002BF9D1002900D0D0607047130067
:104630000029FBD1DB68D360C160F7E70029F5D022
:104640001860F3E7FC1B0020F0B54646D6464F46FF
:10465000D023C0B5324FA2B01B06050088463800F3
:1046600001A91C6800F078FF061E07D1019B64B207
:104670009C4203D0380000F077FF013684220021ED
:1046800001A8FFF727FE43462A0001A92548FEF7A7
:10469000CDFE019B8046002B15D1234B1C68002CBE
:1046A00006D06368002B0CD09847E468002CF8D142
:1046B000002E2FD1404622B01CBC90469946A246FF
:1046C000F0BDE468EBE7184B1D689A46002D25D035
:1046D000164B994602E0ED68002D13D02C68002C93
:1046E000F9D04B461B68002B01D0AB42F3D16B7C59
:1046F000019A002B0AD0280002A9FFF7F7FDED6808
:10470000002DEBD1534601951C68C8E7110002A8A3
:10471000A047E0E7380000F007FFCBE70195C7E7C7
:10472000101A002085430010FC1B0020001C0020F4
:104730000FB400B583B004A901C90191FFF784FF4C
:1047400003B008BC04B0184710B500F045F810BD20
:10475000F0B5002915DD0E4B0D271A680D4B4118D9
:10476000D3185C4263410C4C5B001E5F202405782B
:10477000AE4207D093691C42FCD1013015608842DB
:10478000F5D1F0BD93691C42FCD11760F2E7C04639
:10479000301C00200080FCBF3C1C002030B50029EC
:1047A00014DD0C4B1A689369DB060FD40025102426
:1047B0000138013593691C42FCD113684355A94265
:1047C00002D093691C42F4D0280030BD03256D420D
:1047D000FAE7C046301C0020E12110B50B4B0C4815
:1047E0001B780C4B49021B780B4B1860FBF786FEBD
:1047F00002210020FBF70EFE02210120FBF70AFE3A
:1048000001210648FFF702FF10BDC046145A0010F0
:1048100000400340185A0010301C0020B011002046
:104820003A4AF0B5821A53425A410723D6464F46B8
:104830004646040052429A43354B1032C0B51A60C6
:10484000344B0D0034491A6010008B689843031EE6
:10485000FAD166212268FF312071D0661160633978
:104860008833FF39D0639063D1500520FDF79AF863
:104870000600680829008019FEF75EFE430098468E
:104880008044070005214046FEF756FE3B1A9A4633
:10489000224B8146700080199D4232D82049FEF794
:1048A0004BFE451C002324680120E3662268043384
:1048B000534006221A4080235B0123431A6053466B
:1048C000E3614B46236243464F2B03D950214046B8
:1048D000FEF732FEA0232200E0508023E06F7C32FE
:1048E000684000045B011343000C18600123390089
:1048F0003000E366FEF720FE1CBC90469946A246B7
:10490000F0BD0849FEF718FE451CCBE7C411002096
:1049100000E0004000F0004000C000403F420F00B7
:104920008096980040787D01F0B54546DE465746B2
:104930004E46E0B50025046883B0E566616001215C
:1049400090460CAA1278E166002B55DD591E8C4664
:1049500010350127AA4670350021A9466646574002
:104960007F0200930025002903D105796B1E9D412C
:10497000AD0200239C46B14237D043465B5C1D43E9
:1049800063461D43009B25619C465346656B2B4245
:10499000FBD0634600934B46E3589C46002B0ED158
:1049A000B14224D0009B01318B42DBD1027108005F
:1049B00003B03CBC90469946A246AB46F0BD656D3F
:1049C000012501928022636B92001342FAD0019A72
:1049D000236E002DE6D06546002D03D0EB0701D4F1
:1049E0002B07E3D402214942E0E7BC46C5E7002A91
:1049F000D8D100250192E5E70021D7E7F0B5D646EA
:104A00004F46464600250468C0B5E5666160012151
:104A1000944608AA1278E166002B3BDD0135FF358C
:104A20000126591EAA46803D8846A94600215640C7
:104A30007602656F102DFCD0002923D08027002539
:104A40007F00884512D0276102E0A56F002D11D1AB
:104A50004D466559656D002DF7D00221494202711E
:104A600008001CBC90469946A246F0BD5746354307
:104A70002F43E8E7654624696C5401318B42EED040
:104A80000468D6E70579002DD8D0A0278025FF003F
:104A9000ED00D6E70021E2E710B5062000F078FB34
:104AA0000120FCF7E3FDC046F0B557464546DE461B
:104AB0004E46E0B50D000B3583B00700162D22D809
:104AC000102900D9BBE000F0B5FA10251823022008
:104AD000D14EF3181A005C68083A944200D1BEE047
:104AE000032362689A431300E268A168CA60916078
:104AF0000122E318596838000A435A6000F09CFA12
:104B0000200008309EE007239D4300D597E0A9428E
:104B100000D994E000F08EFAF823FF339D4200D8CC
:104B2000ADE1680A00D194E0042800D980E138237F
:104B30009846A80980443930C100B74E7118083929
:104B4000CC68A14218D0032362689A431300521B19
:104B50000F2A00DD36E1002AC6DA03239C4608E06E
:104B60006246636893435A1B0F2A00DD2AE1002A3C
:104B7000BADAE468A142F3D13200346908329442CF
:104B800000D177E003236168994389460B00491BF4
:104B90000F2900DD77E1726132610029A8DA9F4AAE
:104BA000914500D910E1DA08012391108B40D20021
:104BB000716892190B4391687360E260A160946020
:104BC000CC60012182109140994259D80B4205D105
:104BD00003229043490004300B42FBD00323984644
:104BE000C3009946B144CC4682466346DC68A4457E
:104BF00007D129E1002A00DB32E1E468A44500D1B5
:104C000022E14246636893435A1B0F2AF2DD0120DA
:104C10008046611905436560A068E5680836C5608F
:104C2000A8604046F160B16010434860CE608E607D
:104C30003800E25000F000FA2000083002E00C23B7
:104C400000203B6003B03CBC90469946A246AB4670
:104C5000F0BD80213F238900402098466DE7DC6845
:104C60000230A34200D03BE732003469083294425C
:104C700000D087E701217368821091409942A5D93D
:104C80000323B46862689A439046AA4203D3531B35
:104C90000F2B00DD88E023004344614A0193614B00
:104CA00093469A4612681B68EB18013200D139E12D
:104CB0005D4A944663441B0B1B0300930099380024
:104CC00000F0BCF903008146013300D1F6E0019BFE
:104CD000834200D9F0E051464968009B8C4651461A
:104CE00063444B6001991A00494500D14FE15B468E
:104CF0001B68013300D154E14B4601995B1A9A18A5
:104D000053465A6007234A461A40019200D113E1E4
:104D100008214B4689469B1A99440099434B4944C4
:104D20009B1A5B1A1B051B0D0091380019009B464E
:104D300000F084F9431C00D14FE14B46C01A030038
:104D40005B440093534652465B6801215B445360C9
:104D50004A464846B260009A0A434260B44200D1D3
:104D600023E142460F2A00D821E107200C3A824372
:104D700060680140052011436160A11848608860A7
:104D80000F2A00D934E14A464C4652685146C96A56
:104D9000994201D25146CB625146096B994200D3E8
:104DA0008EE051460B638BE001222900134311432F
:104DB000651961603800B5606B6000F03DF9200056
:104DC00008303FE74046D7E65A0A042A6ED9142A2B
:104DD00000D9C1E011005C325B31D20008235B4294
:104DE0009C46B218944463469A68032398469445B7
:104DF00000D19AE0434651689943494502D99268E7
:104E00009445F7D1D3689C4673686146A260E1601F
:104E10008C60D460D5E6C04608160020FF01000073
:104E2000001600204C1B00200F100000081000008E
:104E3000142852D9542800D996E06E239846280B9E
:104E400080446F30C10078E608239B46073BDC4472
:104E50009B46DA4443465246134200D0C5E64CE036
:104E60000122E318596838000A435A60E368A268CF
:104E7000D3609A6000F0E0F820000830E2E62B00F2
:104E8000E808083324E6012360191D43656070615A
:104E90003061C26082601A004B460A4342603800AB
:104EA000E15000F0C9F820000830CBE69A09110063
:104EB00039323831D20091E7B44260D0B4686268C8
:104EC00003239A43531BAA4202D30F2B00DD6BE747
:104ED000380000F0B1F80020B4E65B239846804427
:104EE0005C30C10029E608235B429C46E1444B4606
:104EF0009B6801384B4500D097E043460342F2D10E
:104F000073688B4373604900994200D9B8E6002961
:104F100004D1B5E6042294464900E2440B42F9D09C
:104F200050465DE610330093C8E68910023B8B4083
:104F300071680B43736068E7009B38004B441B05A6
:104F40005B421B0D19009B4600F078F8431C00D013
:104F5000F3E600239B46F5E6542A2AD81A0B1100E3
:104F60006F326E31D20039E7AA235B0098422AD80B
:104F7000DD3B9846E80B80447830C100DDE55346C0
:104F80005B68009A9C46534662445A60AFE6090546
:104F900000D0ACE6009AB468424401310A43626032
:104FA000F4E65B464A461A60ACE64C46EEE64160E3
:104FB0008EE7AA2149008A4224D8DA0B1100783200
:104FC0007731D2000AE71A4B984224D87C239846BE
:104FD000A80C80447D30C100AFE5009A019B944647
:104FE0004A46083B63449B1A009300239B46A9E66C
:104FF00021003800083100F097F95346B4685B6827
:105000006268C3E60A498A420BD89A0C11007D32C5
:105010007C31D200E2E6FE217E2389007F20984683
:105020008BE5FE227E219200D8E673686BE7C046CE
:10503000540500007047C0467047C046002370B555
:10504000064C050008002360FCF712FB431C00D04F
:1050500070BD2368002BFBD02B60F9E7441E0020B5
:1050600010B580210400FFF71FFDB7239B00E0501F
:10507000002807D002000023803208C09042FCD1F3
:10508000002010BD01204042FBE7C046B7239B0033
:10509000C25810B50023002A01D0180010BDFFF738
:1050A000DFFF0300F9E7C046F8B505000C00160065
:1050B0001F2909D8B727BF00C359002B09D0A40066
:1050C0001B1918681E60F8BD1623036001204042BA
:1050D000F9E7FFF7C5FF002801D1EB59EFE7012001
:1050E0004042F0E770B505000C001F2922D8B72315
:1050F0009B00C358002B0ED08A009B181A68002A08
:1051000009D0012A14D0511C0ED0002120001960B2
:105110009047002070BD280000F07EF822000100BA
:10512000280000F065F8F5E7162303600120F1E799
:105130000020EFE71623036001204042EAE7C04663
:1051400070B505000C001F291FD8B726B60083597B
:10515000002B10D0A2009B181A68002A09D0511CFD
:1051600011D0012A0DD000212000196090470020A5
:1051700070BD0120FCE7FFF773FF002805D1AB5994
:10518000E8E70320F4E70220F2E701204042EFE7DE
:1051900010B5034B01001868FFF7A4FF10BDC0460F
:1051A000D011002010B5044B0A001B680100180044
:1051B000FFF77AFF10BDC046D0110020B722064B82
:1051C00092001B6810B59A580020002A00D010BD2C
:1051D0001800FFF745FFFAE7D011002010B5034B88
:1051E00001001868FFF7ACFF10BDC046D0110020C9
:1051F000002370B5074C050008001100236000F083
:1052000089F9431C00D070BD2368002BFBD02B60B4
:10521000F9E7C046441E002010B500F073F910BD38
:1052200010B5830727D00378002B26D00300032175
:1052300002E01A78002A1CD001330B42F9D1196818
:105240000F4A104C8A188A4322420FD1043319683E
:105250000B4A8A188A43224208D104331968084A43
:105260008A188A432242F1D000E001331A78002ADA
:10527000FBD1181A10BD0300E1E70020FAE7C04691
:10528000FFFEFEFE80808080F8B50C000600FFF770
:10529000D1FE204FBB685D6803239D431E4B2C1B32
:1052A0009C466444240B1D4B013C24039C4207DDB7
:1052B00000213000FFF7C2FEBB685B19984204D0A2
:1052C0003000FFF7B9FE0020F8BD61423000FFF763
:1052D000B5FE431C0DD00122BB682D1B15435D603C
:1052E0000F4B30001A68141B1C60FFF7A5FE01204D
:1052F000EAE700213000FFF7A1FEBA68831A0F2BFE
:10530000DEDD08490968401A0549086001210B43A0
:105310005360D5E708160020EF0F0000FF0F0000D4
:10532000501B002000160020F0B5D6464F464646DA
:105330000500C0B50C1E5CD0FFF77CFE21000839CB
:105340004F6801243B000322A343C81846689643D4
:10535000B146664EB268824200D175E04A4642606C
:10536000821894463C4229D10F68C91B8A68DB1910
:10537000904662465768082294462740B444BA468D
:10538000E04556D0CA68944642466746D7606246B2
:10539000474697605246002A13D101224B44CF184A
:1053A000BC468468524F1A43BC4200D17AE0C068C0
:1053B000E06084604A606246136005E057682742F7
:1053C000EBD01C434C6003604A4A934216D8DB087A
:1053D000FF3A9810FF3A82407068DB000243726027
:1053E0009E19B368CE608B60B160D9602800FFF76A
:1053F00023FE1CBC90469946A246F0BD5C0A042CD4
:105400003AD89C09200039343830E4003419083C7B
:10541000A268032794423ED05068B843984202D90C
:1054200092689442F8D1D468CC608A60A160D1605F
:10543000DCE7002F55D1C2684B4480681C43C26032
:1054400090604C60CB50D1E74B443C4206D10A6897
:10545000891A88689B18CA68C260906001221A4342
:105460004A60254AB16012689A42BFD8234B28008F
:105470001968FFF709FFB9E7142C07D9542C19D87C
:105480001C0B20006F346E30E400BFE720005C345A
:105490005B30E400BAE70123801083407068034367
:1054A0007360C1E7E160A1604A606246CC608C60D5
:1054B00013609BE7AA204000844205D8DC0B200043
:1054C00078347730E400A1E70D48844205D89C0C7D
:1054D00020007D347C30E40098E7FE247E20A40088
:1054E00094E71C434C60036080E7C0460816002028
:1054F00010160020FF010000041600204C1B0020A5
:105500005405000058220120014B40421A607047A8
:10551000441E002058220120014B40421A6070476F
:10552000441E0020F8B5C04601B40248844601BCC0
:10553000604700BF7D01002001B40248844601BCE1
:10554000604700BFD501002001B40248844601BC79
:10555000604700BFD501002001B40248844601BC69
:10556000604700BF2101002001B40248844601BC0D
:08557000604700BFC1000020EC
:105578003F000000496E697469616C697A696E67F9
:105588002100000054686520616363656C5A2069D6
:1055980073203A25640D0A00486172647761726568
:1055A80020616C61726D20256420616C7265616494
:1055B8007920636C61696D656400000048617264FC
:1055C80020617373657274000A2A2A2A2050414E9A
:1055D8004943202A2A2A0A000A000000282A001023
:1055E800E8290010E8290010202A0010E8290010F6
:1055F800E8290010E8290010E8290010E82900101F
:10560800E8290010E8290010182A0010E8290010DD
:10561800102A0010E8290010E8290010D2290010EB
:10562800FE2A0010C82A0010F22A0010C82A00100A
:10563800E02A0010C82A0010C82A0010C82A001042
:10564800C82A0010C82A0010C82A0010C82A00104A
:10565800302A0010C82A0010C82A0010C82A0010D2
:10566800C82A0010C82A0010302A00107C2D00100B
:1056780096290010962900109629001096290010E6
:1056880096290010962900109629001096290010D6
:1056980096290010962900109629001096290010C6
:1056A80096290010962900109629001096290010B6
:1056B80096290010962900109629001096290010A6
:1056C8009629001096290010962900109629001096
:1056D8009629001096290010962900109629001086
:1056E800962900109629001096290010CC2D00103C
:1056F8004C2D0010CC2D0010962900109629001072
:105708009629001096290010962900109629001055
:105718009629001096290010962900109629001045
:105728009629001096290010962900109629001035
:1057380096290010962900107C2C0010962900103C
:105748009629001096290010962900109629001015
:105758009629001096290010962900109629001005
:105768007C2C0010102C00107C2C0010CC2D00106C
:105778004C2D0010CC2D0010962900107C2C001008
:1057880096290010962900109629001096290010D5
:10579800962900107C2C0010CA2B001096290010A6
:1057A800962900100E2B0010962900107C2C001052
:1057B80096290010962900107C2C0010666E69004E
:1057C800666E692B000000006E616E00666E692DC2
:1057D8000000000000000000000000000000F03F92
:1057E80000000000000024400000000000005940B4
:1057F8000000000000408F40000000000088C34007
:1058080000000000006AF8400000000080842E417B
:1058180000000000D01263410000000084D79741C7
:105828000000000065CDCD4106005250BBFF3CB6DC
:1058380084580010060052503ABCA911785800103C
:1058480006005250E182887F6858001006005250C6
:10585800D3F075426058001052656C65617365003D
:10586800626F6F74325F7732357130383000000004
:10587800302E3100312E322E300000007069636FF7
:10588800000000006932635F6D7075393235300091
:105898004175672031312032303231000D0A000065
:1058A8000600525053B4F4A1D458001008005250C6
:1058B800920000005541525420737464696E0000D0
:1058C80055415254207374646F7574005541525495
:1058D80020737464696E202F207374646F7574006C
:1058E80080010181B0B0AB700000000074B201818A
:1058F800B0AB30800000000080080181B0B0ABF090
:10590800000000003F020181B0AB308000000000C1
:0C59180080060181B0B0ABF00000000080
:1059240038AAFF7FC0FFFF7FE8AAFF7F01000000C5
:1059340058A9FF0FB0A90280ECA9FF0FB0B0A8804E
:105944003CAAFF0F0100000048AAFF0FB0B0AA80D4
:105954007CAAFF0F9CFFFF7F48ABFF0F01000000F4
:1059640044ABFF0FAA3F398090ABFF0FB0B0A880C3
:105974009CABFF0FB0B0AA80DCABFF0FB0B0A88027
:10598400F0ABFF0F01000000ECABFF0FB0B0A8803C
:10599400F4ABFF0F010000008CACFF0FAA0FB28024
:1059A400F4ACFF0F58FFFF7FDCAFFF0FB0B0A8804F
:1059B400F8AFFF0F54FFFF7F60B2FF0F010000003C
:1059C400D0B3FF0F00840480E0B3FF0FB0B0A88011
:1059D400E0B3FF0F40FFFF7FCCB6FF0F00840480CD
:1059E400ECB6FF0FB0B0A88004B7FF0F01000000B1
:1059F400B4020010A80200109C02001030580010DD
:105A0400900200103C5800104858001054580010E0
:085A1400A8580010B45800105E
:105A1C0070B5D024002524060268EFF3108172B60D
:105A2C001368002BFCD0BFF35F8F04230022C356F6
:105A3C00A2565E1C16D093420CD14379012B09D986
:105A4C00013B43710368BFF35F8F00221A6081F33F
:105A5C00108870BD0368BFF35F8F1D6081F31088E1
:105A6C0020BFD9E743790271002BEBD0E8E7C046A1
:105A7C00030030B50068EFF3108472B60268002A98
:105A8C00FCD0BFF35F8FD0220020120610560422E8
:105A9C009A56551C14D082420BD0002913D00020EA
:105AAC000A601B68BFF35F8F00221A6084F31088B2
:105ABC0030BD58790128F0D9013858710120F0E730
:105ACC0018710120EDE70020EBE7C0460268EFF308
