:020000041000EA
:1000000000B5324B212058609868022188439860DF
:10001000D860186158612E4B002199600221596106
:100020000121F02299502B49196001219960352056
:1000300000F044F80222904214D00621196600F024
:1000400034F8196E01211966002018661A6600F04E
:100050002CF8196E196E196E052000F02FF8012189
:100060000842F9D1002199601B49196000215960AB
:100070001A491B48016001219960EB211966A021F2
:10008000196600F012F800219960164914480160C1
:100090000121996001BC002800D000471248134993
:1000A000086003C880F30888084703B5996A0420EC
:1000B0000142FBD001200142F8D103BD02B5186610
:1000C0001866FFF7F2FF186E186E02BD00000240BE
:1000D000000000180000070000035F00212200005C
:1000E000F4000018222000A00001001008ED00E03C
:1000F00000000000000000000000000074B24E7A12
:1001000000200420F7010010C3010010C5010010F9
:10011000C1010010C1010010C1010010C101001097
:10012000C1010010C1010010C1010010C701001081
:10013000C1010010C1010010C9010010CB01001065
:10014000CD010010CD010010CD010010CD01001037
:10015000CD010010CD010010CD010010CD01001027
:10016000CD010010CD010010CD010010CD01001017
:10017000CD010010CD010010CD010010CD01001007
:10018000CD010010CD010010CD010010CD010010F7
:10019000CD010010CD010010CD010010CD010010E7
:1001A000CD010010CD010010CD010010CD010010D7
:1001B000CD010010CD010010CD010010CD010010C7
:1001C00000BE00BE00BE00BE00BE00BE00F04BF888
:1001D000103800BEF2EB88712C7A0010547A0010AF
:1001E0003402001090A31AE700202149086006C8D5
:1001F00081F3088810471F48006800282FD10DA4FC
:100200000ECC002902D000F012F8F9E71A491B4A77
:10021000002000E001C19142FCD1194988471949E9
:1002200088471949884700BEFDE701C901C29A42C3
:10023000FBD37047547A0010C0000020381A002009
:10024000CC9300100000042000000420CC93001088
:1002500000100420001004200000000070470B482C
:1002600003F012F80047EFF30580C0B270470000BA
:1002700008ED00E0000000D0381A0020601E0020C9
:100280001119001079050010CD1800105756000004
:1002900006005250ABB36053D874001006005250A1
:1002A000861C0302E8740010060052505422A29DDE
:1002B000F474001005005250DE65F468CC93001011
:1002C000F8B5C0460448054B10B5834203D0044B33
:1002D000002B00D0984710BD381A0020381A002093
:1002E0000000000006480749091A8910CB0F591869
:1002F00010B5491003D0044B002B00D0984710BD17
:10030000381A0020381A00200000000010B5074CF1
:100310002378002B09D1FFF7D5FF054B002B02D026
:10032000044800E000BF0123237010BD381B0020EB
:100330000000000090660010054B10B5002B03D0A4
:100340000449054800E000BFFFF7CCFF10BDC046E0
:10035000000000003C1B00209066001010B584B027
:1003600002AA1A231370143B537013711A33C15C21
:10037000C9000124214391700133C35CDB00234396
:10038000D370406A012300930433682104F026FBF4
:10039000831C02D0012004B010BD0020FBE7000048
:1003A00070B50400080004A90E7805A909786062F8
:1003B000A262E362212566552026A155124904F068
:1003C000E1FA0321A06A00F00DF90321E06A00F0D0
:1003D00009F900220121A06A00F01CF90022012184
:1003E000E06A00F017F9A25D615D2000FFF7B6FF3B
:1003F000002804D0054804F069F8200070BD0448C6
:1004000004F064F8F9E7C046801A06009066001010
:10041000A466001010B584B004000F226A443B2388
:1004200013703A3B00936821406A04F0D7FA831CAA
:100430000DD022003032606A002300930E33682111
:1004400004F0D8FA831C04D0012004B010BD0020B1
:10045000FBE70020F9E70000F0B5CE4600B582B01A
:1004600004000D002023C35C002B09D0012B5DD0BC
:10047000022B5ED0032B5FD0FE239B05994601E043
:10048000394B99462000FFF7C5FF002866D0382376
:10049000E05C00020133E35C184303F001FE061C3C
:1004A000E0603A23E05C00020133E35C184303F0B0
:1004B000F7FD019020613C23E05C00020133E35C26
:1004C000184303F0EDFD071C60618E21C905301C47
:1004D00003F0E0FD002805D08F21C905301C03F092
:1004E00088FDE0608E21C905019E301C03F0D2FD1D
:1004F000002805D08F21C905301C03F07AFD20614A
:100500008E21C905381C03F0C5FD002805D08F21B8
:10051000C905381C03F06DFD6061012D0FD0022D5F
:1005200012D0032D15D0C020000619E00F4B9946BC
:10053000A8E70F4B9946A5E70E4B9946A2E7E0685E
:10054000494603F060FD0BE02069494603F05BFD7E
:1005500006E06069494603F056FD01E0C020000650
:1005600002B004BC9146F0BD00000343000083428A
:10057000333303423333834100B593B0642000F03A
:10058000FBFD03F0E1FF642000F0F6FD0223019380
:1005900000230093093308220E4902A8FFF700FF49
:1005A0000D4803F093FF0D4803F090FF032102A8CC
:1005B000FFF752FF03F096FD02000B00084803F01E
:1005C000B7FF0A2000F0D8FDF0E70B9804F056F9C9
:1005D00004F094FEC4110020B4660010BC66001044
:1005E000E466001010B58300084A944663441C6812
:1005F00040226240C02414408022520113431C60F8
:10060000C000034B9C466044416010BD04C00140E3
:100610000040014080000B4B9C46604400290DD0F7
:100620000823002A0CD004221343026853400C22F2
:100630001340802252011043036070470023F0E70B
:100640000022F1E704C00140EFF3108072B6034BC3
:100650001B68002BFBD0BFF35F8F70472C0100D0CD
:10066000BFF35F8F024B00221A6080F3108870473F
:100670002C0100D070B505000E001400FFF7E4FF58
:10068000F208AA1815780721314001238B402B422C
:1006900005D1DBB22B431370FFF7E2FF70BD3100D1
:1006A000200001F0B1F90000034B1B680220184044
:1006B000431E9841C0B2704700C0064000231F2B64
:1006C00008D8054A9A189200BFF35F8F0021116085
:1006D0000133F4E77047C04640000034054A107803
:1006E000431CDBB21370172B02D9130010221A70AF
:1006F0007047C0461811002070B505000C00062098
:1007000001F098FAC000210002F012FEC60908D0DC
:100710000E4B9E4217D87F23184001303400460804
:1007200000E001246C62AE622C3580239B011D43E6
:1007300000232B60062001F07DFA8000A1018919B9
:1007400002F0F6FD70BD0026014CEBE7FEFF000055
:10075000FFFF0000002909D00A22064B9C46604496
:10076000434258414000044BC2527047802252001D
:10077000F3E7C0460080FCBF581C002070B50500A0
:100780000C00062001F056FA002829D0164B9D4295
:1007900027D08022D203154B1A60154B1A60154BD7
:1007A0009B6811009943FAD100212800FFF7D2FF7E
:1007B00021002800FFF7A0FF2C002C34E96A6022FA
:1007C0004A406E21114080225201224311600A4B9F
:1007D0002B6380239B01234310221A600323AB6405
:1007E00070BD80221204D6E70080034000E0004084
:1007F00000F0004000C00040010300000A4B1A68EE
:10080000EFF3108172B61368002BFCD0BFF35F8F3B
:10081000054B1B68BFF35F8F00221A6081F31088BD
:1008200040BF0020002170473C1C002070B505002F
:100830000C00080000F0F0FC200000F0D3FD084997
:10084000200000F013FDFFF749FF064B9C46604473
:10085000800068602C75A400034BE55070BDC04655
:100860004D0B001040000034281C002010B500295A
:1008700022D003681B7B99421ED8174B9C466144CB
:10088000090183689C4661440C684968002A19D0B4
:1008900003681B7B9A4215D883680F4884466244DC
:1008A00012019A1810685368020001208B4201D887
:1008B0000ED00020C0B210BD084B094A3B210948A8
:1008C00001F008F8054B064A3B21064801F002F802
:1008D000A242EFD8EDE7C046FFFFFF0FBC68001053
:1008E00040670010C069001010B500291ED0037BBE
:1008F00099421BD84B005B18033B0468A446634431
:10090000002919D0002A1DD0914221D0002A25D0DB
:10091000047BA24222D804685000801803382018B3
:100920008170197800291FD11A7010BD104B114A1F
:100930006921114800F0CEFF104B114A70310E486A
:1009400000F0C8FF0F4B0E4A71210B4800F0C2FFA8
:100950000D4B0B4A7221084800F0BCFF044B054ABE
:100960006921054800F0B6FF41701A70DDE7C04606
:100970001469001000670010306900107C690010D5
:100980000C670010886900109469001070B50600AB
:100990000D001400002914D0002A14D08068736858
:1009A0009847002806D0220029003000FFF79CFF5E
:1009B000280007E02A0021003000FFF795FF200003
:1009C00000E0100070BD0800FCE7000070B5CE46E6
:1009D00000B583B00500009201930AAB1C780BAB05
:1009E0001B789946002C28D003685A7B944209D181
:1009F0000123002B1BD1002C3DD1200003B004BCEF
:100A0000914670BD002C0CD01A7B944209D81A680C
:100A100063001B19033BD3189B78002BE9D00123FB
:100A2000E7E73F4B3F4A69213F4800F053FF3F4B08
:100A30003F4A65213F4800F04DFF03689C7B002C36
:100A4000D9D012D01A7B94420FD862001219033AFF
:100A500019688C46624451789973002900D1D97382
:100A60000023937053701370C5E72D4B2D4A6921F5
:100A70002D4800F02FFF002C3BD02B681B7B9C42A5
:100A800037D82D4BE3181B01AA689446634400999C
:100A9000019A19605A60089A9A60099ADA602E6879
:100AA000002C2CD031D0337B9C422ED863001B19F4
:100AB000033B32689446634400229A705A701A705D
:100AC000717B22003000FFF761FF7073844200D019
:100AD00093E7287D009A019B00F010FC061E02D0CF
:100AE0004B46002B17D00C9B002B00D185E71E70C6
:100AF00083E7124B124A3B210E4800F0EBFE114BEC
:100B0000114AA621084800F0E5FE054B054A692177
:100B1000054800F0DFFE2868210000F03DFEE2E716
:100B2000146900100067001030690010AC670010F5
:100B300078670010C0690010FFFFFF0FBC6800104D
:100B400040670010BC69001020670010F0B5DE4659
:100B500057464E464546E0B58BB0099000230893B2
:100B60008200B24BD7583D0052E0B14BB14A3F2111
:100B7000B14800F0AFFEB14BB14A3B21B14800F0A3
:100B8000A9FE002B01D1002A68D10021604600F0A7
:100B9000F9FDA04219D13268736806920793B368D1
:100BA0009846F3689A464346002B14D0002C18D080
:100BB0002B681B7B9C4214D8631EEA68D35C0893A5
:100BC0001B0218432861002015E09F4B9F4A8C218F
:100BD0009C4800F07FFE9E4B9C4A9021994800F073
:100BE00079FE964B9B4A4021964800F073FE002305
:100BF0009A46984600206B68BFF35F8F00221A6008
:100C000087F310884346002B31D1002800D105E13D
:100C100000F00EFB0029A8DB0023002406930794B4
:100C20006A68EFF3108772B61368002BFCD0BFF32D
:100C30005F8F2B689C465C7B002CD8D09BD01B7BA5
:100C40009C4298D8844BE6183601AB6898464644D7
:100C500032687368121A8B41002B92DD3268736818
:100C6000099800F04BFB00239A469846C3E7089B7F
:100C70001B022343994651461800C04706000F0047
:100C80006A68EFF3108B72B61368002BFCD0BFF3C9
:100C90005F8F002F26DB002F52DD2B69002B53D0F6
:100CA0004B4574D100F0C4FA02000B1E75DB010045
:100CB000180092197B41984202D804D1914202D97E
:100CC00001225242D317002B6DDB00210491013128
:100CD0000391029451460191414600912800FFF78B
:100CE00075FE4BE02B69002BD5D04B451CD1069AE5
:100CF000079B10001900921BBB41994202D804D1F6
:100D0000904202D901225242D317002B12DB00215C
:100D100004910131039102945146019141460091A1
:100D20002800FFF753FE29E04C4B484A9F214548D5
:100D300000F0D0FD3E4B3F4A3F213F4800F0CAFD46
:100D4000002F01D1002EA8D12A68002C47D0537B58
:100D50009C422ED10123002B41D1D37B002B44D1C7
:100D6000D473002C54D02B681B7B9C4250D8013C80
:100D7000EB689C46644423780133237000232B6185
:100D80006A68BFF35F8F13608BF3108840E7334BC3
:100D90002E4AA2212B4800F09DFD254B254A3F21DC
:100DA000254800F097FD224B224A3F21224800F0BF
:100DB00091FD002C0DD0137B9C420AD863001B19B7
:100DC000033B11688C4663449B78002BC3D00123FE
:100DD000C1E7234B234A6921234800F07BFD234BC5
:100DE000234AF721204800F075FD002B0AD0117B23
:100DF0008B4207D85900CB18033B11688C466344DB
:100E00005C70ADE7164B174A6921174800F062FD88
:100E10000A4B104A40210B4800F05CFD0BB03CBC73
:100E200090469946A246AB46F0BDC046281C00201D
:100E3000D4670010E8660010F0670010BC6800106E
:100E400040670010C06900103868001090670010FB
:100E5000506800104C670010FFFFFF0F5C68001027
:100E600014690010006700103069001098680010C5
:100E70003067001010B50A4B5B68002B04D00A21C4
:100E8000084800F0CFFA10BD054C2300064A102197
:100E9000206800F095FB03212000FFF7C7FCEEE778
:100EA0001C1100203C1C00206D08001010B5064BE2
:100EB0005B68002B01D0044810BD044B044A5C2140
:100EC000044800F007FDC0461C110020F068001027
:100ED00060670010C0690010F0B5D6464F46464620
:100EE000C0B588B0804616001F00109B994612AB13
:100EF0001B789A461F236B4400221A7032E00028A8
:100F000009D042461268127B904204D8421E4146E4
:100F1000C9688A5C42E03F4B3F4A40213F4800F0AD
:100F2000D9FC0020002B6DD05346002B6AD01199BC
:100F3000C84704000D0003000B4369D000293FDBC4
:100F400000F076F900294FDB24184D41A94202D860
:100F500004D1A04202D901246442E517002D49DBE7
:100F600026002F0043465A68EFF3108472B61368C8
:100F7000002BFCD0BFF35F8F1F236B44049300232F
:100F800003930293119B01934B46009332003B0065
:100F90004046FFF71BFD031EB1D1020041464968E0
:100FA000BFF35F8F00250D6084F31088002B27D0DE
:100FB0001F236B441B78002BB3D112021043B1E7FF
:100FC00032003B00361BAF41BB4202D804D1B242D3
:100FD00002D901267642F717002FC3DA104B114AC7
:100FE0003F21114800F076FC0D4B0E4A3F210E4880
:100FF00000F070FC0A4B0B4A3F210B4800F06AFCE2
:101000000120404208B01CBC90469946A246F0BD63
:101010000020F7E7BC6800104C670010C0690010A2
:10102000D4670010E8660010F0670010F0B587B0D4
:1010300006000F00FFF717F900281ED106246442AE
:10104000E517A4197D41BD4202D803D1B44201D9AC
:1010500000240025002D13DB0494059500F0E8F82A
:10106000002913DB241A8D41002D17DC14D0300029
:10107000390000F0E9F807B0F0BD234800F0C4FCE7
:10108000224B234A3F21234800F024FC1F4B204AD7
:101090003F21204800F01EFC002CE8D0FFF706FF9F
:1010A0000023029301931C4B0093049A059BFFF7C6
:1010B00013FF002818DADAE7002300E00023002BF2
:1010C000D5D1164B1A68EFF3108172B61368002B56
:1010D000FCD0BFF35F8F114B1B68BFF35F8F002203
:1010E0001A6081F3108820BF0499059A0C4B5B6A43
:1010F0009A42E3D80A48806A884203D29A42DBD0F7
:101100000123DCE70123DAE7F8690010D467001057
:10111000E8660010F0670010FD0700103C1C00207E
:101120000040054070B504000D0000F081F8002972
:1011300010DB02000B00001969418B4202D804D178
:10114000824202D901204042C117002908DBFFF783
:101150006DFF70BD054B064A3F21064800F0BAFB03
:10116000024B034A3F21034800F0B4FBD467001050
:10117000E8660010F067001010B5FA229200002314
:10118000002102F019FFFFF7CDFF10BD70B5EFF39E
:1011900005833F2018401038EFF3108472B6194BC6
:1011A0001B68002BFBD0BFF35F8F01231900814028
:1011B000154A5163154A12781500C5402B4214D0C8
:1011C000114B5D6A8300124E9B599D4206D38300EA
:1011D000104D5B598A430D490A7007E00A4A031D06
:1011E0009B0099589950002300E00023BFF35F8FC4
:1011F000044A0021116084F31088002B00D0984726
:1012000070BDC046280100D000400540561C00209B
:10121000401C0020A41B002010B50100024A034816
:10122000FFF728FA10BDC046646A0010541C002065
:10123000044B596A00E01900024B986A5B6A9942B4
:10124000F9D1704700400540074B5B6A8B4204D2DE
:10125000054B5B6AFAE7044B5B6A8B4203D1024B96
:101260009B6A8342F7D370470040054070B5040085
:101270000D00EFF3108672B61B4B1B68002BFBD0E2
:10128000BFF35F8F002D1CD0200000F04BFD174BEB
:1012900098420BD01900200000F04CFD01212000E5
:1012A00000F038FD0123A340114A1360A400114B44
:1012B000E550BFF35F8F0C4B00221A6086F3108855
:1012C00070BDA2000B4B0021D1500122A2400A495F
:1012D0000B7893430B700549200000F055FD002169
:1012E000200000F017FDE4E7280100D08D11001068
:1012F00038600540A41B0020561C0020F0B5DE46D7
:1013000000B584B00500140001921E000293FFF79F
:101310008FFF03948E4202D84ED184424CD9EFF312
:10132000108B72B6274B1B68002BFBD0BFF35F8F6F
:10133000254A17780124AC40E3B23B431370234B9A
:101340005C632A1D92000199D150AA00204902989D
:1013500050501B6A234212D11C4B1B6C234208D0F5
:101360000020BFF35F8F174B00221A608BF31088A9
:1013700023E0184B184AC121184800F0ABFAFFF7D8
:1013800057FF8E4214D802D1039B834210D80E4BD4
:101390001B78BB420ED00D4B1C625C631F222A409F
:1013A000012393400E4A1360074B1F700120D8E7BA
:1013B0000020D6E70120D4E7012004B004BC934606
:1013C000F0BDC046280100D0561C0020004005405A
:1013D000401C0020886A0010486A0010AC6A0010A7
:1013E00080E200E010B5EFF3108472B60A4B1B6880
:1013F000002BFBD0BFF35F8F01238340074A1362AA
:1014000007490A789A430A70BFF35F8F024B0022A4
:101410001A6084F3108810BD280100D000400540F8
:10142000561C0020024B9C466144890001607047B5
:101430004000003410B50400FFF750F9010020000F
:10144000FFF7F0FFFF232371BFF35F8F10BD10B5CF
:101450000400FFF743F901002000FFF7E3FFFF233B
:10146000237100236371BFF35F8F10BD10B5002996
:101470001ED0037B99421BD84B005B18033B0468CA
:10148000A4466344002919D0002A1DD0914221D0DE
:10149000002A25D0047BA24222D80468500080187C
:1014A000033820188170197800291FD11A7010BDD7
:1014B000104B114A6921114800F00CFA104B114AE7
:1014C00070310E4800F006FA0F4B0E4A71210B489E
:1014D00000F000FA0D4B0B4A7221084800F0FAF9AF
:1014E000044B054A6921054800F0F4F941701A706F
:1014F000DDE7C04614690010886B001030690010E9
:101500007C690010946B00108869001094690010C9
:1015100070B506000D001400002914D0002A14D064
:10152000806873689847002806D0220029003000A0
:10153000FFF79CFF280007E02A0021003000FFF79A
:1015400095FF200000E0100070BD0800FCE70000DF
:1015500010B50023437301338373037BC3730123EB
:10156000027B9A4214D9002B0CD0027B934209D8FB
:101570005A00D218033A01688C4662440133DBB248
:101580005370EDE70B4B0C4A69210C4800F0A2F9AF
:10159000002A09D0924207D8016853009A18033AEA
:1015A0008A180023537010BD024B034A6921034877
:1015B00000F090F914690010886B00103069001079
:1015C00010B5017342608360FFF7C2FF10BD0000D9
:1015D00070B50400002901D1080070BD002934D085
:1015E000037B994231D84B005B18033B0268944659
:1015F00063445A78002AEFD02DD0037B9A422AD830
:1016000053009B18033B0068844663445D780020C8
:101610005870002925D0237B994222D84B005B18B3
:10162000033B206884466344002058702000FFF785
:101630006FFF060029002000FFF7CAFF02003100FB
:101640002000FFF765FF0100C6E7094B094A692141
:10165000094800F03FF9064B064A6921064800F0A8
:1016600039F9034B034A6921034800F033F9C046B6
:1016700014690010886B00103069001070B5050007
:101680000C001600002928D02DD0037B99422AD8BF
:101690004B005B18033B0268944663445A78002A67
:1016A00027D19A78002A2AD11978FFF791FF0300F1
:1016B000002E03D0EA7B002A27D1EC73002B37D110
:1016C000002C49D02B7B9C4246D82A6863001C1909
:1016D000033C14190023637070BD224B224A382149
:1016E000224800F0F7F8224B224A6921224800F0F4
:1016F000F1F8224B1C4A3A211C4800F0EBF8204B31
:10170000194A3B21194800F0E5F8002A0AD0297B44
:101710008A4207D851008A18033A29688C466244E5
:101720005470CAE7124B134A6921134800F0D2F8EB
:10173000002B0BD02A7B934208D843001B18033B95
:101740002A689446634400229A70B9E7084B094A14
:101750006921094800F0BEF8054B064A6921064890
:1017600000F0B8F8FC6B0010A86B0010046C0010BF
:1017700014690010886B0010306900103C6C001078
:10178000646C001070B504000A00457B2900FFF767
:1017900075FF6073280070BD10B50400002966D085
:1017A000437B8B420ED0002911D0037B99420ED887
:1017B0004B005B18033B0268D0188378002B0CD1D8
:1017C000002055E00121FFF7DDFF012050E0294B0B
:1017D000294A6921294800F07DF8002B1FD0227B7F
:1017E00093421CD85A00D318033B2268D2181378AE
:1017F0008B421AD0002B1BD0227B934218D85A0060
:10180000D318033B2268D21853788B4216D0002B92
:10181000F0D11B4B1B4A67211B4800F05BF8154BAE
:10182000154A6921154800F055F84378137007E010
:10183000104B114A6921114800F04CF8437853705D
:1018400000238370437001222000FFF717FF02007E
:10185000617B814205D02000FFF75AFE60730120B2
:1018600006E00A4B074A6D21074800F033F80020D4
:1018700010BDC04614690010886B0010306900105C
:10188000D46B0010BC6B0010046C0010DC6B0010FB
:1018900000BEFDE703000A4A1268002A08D0084A81
:1018A0001068C318074A9A4206D3054A1360704766
:1018B000034A05491160F2E701204042F7E7C046BC
:1018C000241C002000000420601E002010B5FFF73B
:1018D000DFFF000010B582B00C001900002A0CD008
:1018E000084B002A0BD00192009323000200064807
:1018F00002F01EFE0120FFF7CBFF044BF1E7034A85
:10190000F1E7C046886C0010986C0010946C0010D1
:1019100070B52B4B2B4A1A602B4B2C4A1A602C4B60
:101920009A682A4B9343FAD12A4C01E008CC984795
:10193000294B9C42FAD300F0FDF8234B274A1A604A
:10194000234B9B68DB43DB01FAD1254B40229A678E
:101950005A671A67DA66234C09E0234B234A83212E
:101960002348FFF7B7FF2000FFF764FD0834214B41
:101970009C4209D22368002BF5D0012BEDD1200029
:10198000FFF765FD0834F2E71B4CA1681B4DC02230
:10199000280002F085FCA560FEF765FC002800D059
:1019A00000BEFEF78BFE00F03BFBFFF763FA144C22
:1019B00001E008CC9847134B9C42FAD370BDC04657
:1019C00000E00040BFCDFBFE00F00040FE7F3C0089
:1019D00000C00040201A0020301A0020FFFFFF0145
:1019E00000F00140181A0020EC6C0010C86C0010C8
:1019F0000C6D0010201A002000ED00E00000002017
:101A0000301A0020381A00200FB400B583B00848FF
:101A100002F05CFD049B002B07D005A90191180082
:101A200002F064FD034802F051FD0120FFF730FF92
:101A3000D86C0010E86C0010F0B5DE46574680B553
:101A400083B007000E0092460A9A93424CD3190EB7
:101A500001911B02180000930A9A002301F0AAFCCE
:101A600005007B00DB199C002D4B9C466444636899
:101A7000834200D260603B1FDBB29B46012B39D909
:101A8000C0239B012343802212011A60BB00254A18
:101A90009958002905D0506901F04AFC01300138FD
:101AA000FDD153465B0122685340E022134080225F
:101AB0005201224313605B46012B26D980239B01F0
:101AC0002343802212011A6065602A0000230098D7
:101AD000019901F06FFCBF00124BF850012003B0D8
:101AE0000CBC92469B46F0BD0F4B104A2D2110486E
:101AF000FFF7F0FE012EC3D1C0239B012343032235
:101B00001A60A368DB07FCD5CBE72168714003238B
:101B10000B401360A3680122B2401A42FAD0CDE70D
:101B200000800040B41B0020606D0010506D00105C
:101B3000746D001030B583B00C2000F009FBFEF787
:101B4000B3FD00280DD00023092B05D899002D4A9C
:101B50002D4888500133F7E72A4B2C4A5A6203B0CC
:101B600030BD2B4B00229A6700F0FAFA294B012274
:101B70001A60274B5B6C012BFBD1274B03221A60A9
:101B8000234B9B6B012BFBD1022400940533234A8A
:101B90000121234800F052FA00940523214A012133
:101BA000214800F04BFA214B00930022022104202F
:101BB000FFF742FF1E4D00952B000022012105205A
:101BC000FFF73AFF104C0094230000220021072069
:101BD000FFF732FF00942300002200210820FFF7C6
:101BE0002BFF0A4B00932300002200210920FFF75E
:101BF00023FF00952B00002200210620FFF71CFF89
:101C0000ADE7C046B41B0020006CDC021BB700002F
:101C1000008000403CB0004030B00040002F6859C8
:101C20000080024000389C1C00C00240001BB7002E
:101C3000405973078000014BC0587047B41B002007
:101C4000074B9B68103080001950BFF35F8FBFF3C4
:101C50005F8F044B0021196082F310887047C046E3
:101C600000ED00E0240100D010B5091A043948083D
:101C7000090B05D14005400D044B184380B210BD3F
:101C8000034B044A8B210448FFF724FE00E0FFFFCA
:101C9000AC6F0010D46D0010BC6F001010B5091AA5
:101CA00004394C08090B08D14905490D064A11436E
:101CB0000180064B2343438010BD054B054A932109
:101CC0000548FFF707FEC04600F0FFFF00F8FFFFE2
:101CD000AC6F0010E06D0010BC6F0010012383405A
:101CE000034A10681840431E9841C0B27047C0466E
:101CF00000E100E0002904D0034B1860034B18609A
:101D00007047034B1860FBE780E200E000E100E071
:101D100080E100E010B5012383401800FFF7EAFFDF
:101D200010BD0000024B9B6810308000C058704707
:101D300000ED00E070B504000D00EFF3108672B600
:101D40000C4B1B68002BFBD0BFF35F8F2000FFF70D
:101D5000E9FF094B984201D0A84205D13200290081
:101D60002000FFF76DFF70BD044B054A6E2105484A
:101D7000FFF7B0FD240100D0CD010010746F0010FA
:101D8000B86D0010BC6F0010F0B5C64600B584B049
:101D900001900D00EFF3108672B6574B1B68002BB5
:101DA000FBD0BFF35F8F554B9A68019C1034A300A2
:101DB000D758534B9F4207D0AF4200D19AE00297C9
:101DC000504BFB1A2F2B08D9320039000198FFF72E
:101DD00037FF04B004BC9046F0BD0198FFF77EFFCA
:101DE000039000210198FFF795FFBFF35F8FFEF787
:101DF0003AFA002801D084421AD10123029C9C4364
:101E0000414923003F4A9B1A5B415943090D4BB29C
:101E10009C460023A168A94212D00622A256002A9D
:101E20000DDB53009B189A002300364CA418F1E7F1
:101E30001E21364B364AFF313648FFF74BFD230053
:101E4000A94250D10622A2569046002A36DB520003
:101E5000424491002B4B5B189A68A260DA79E271D8
:101E60009B795BB2A371002B12DABD200002A08027
:101E700043465B0043449A00224B9B18264A117844
:101E800099714346137003990198FFF743FF9BE74D
:101E9000201D1C4A8B181A1D9B88D90A1C2907D1A2
:101EA00059054915023149005118FFF7DDFEDEE7FB
:101EB0001A4B1B4A99211748FFF70CFD00280DD13A
:101EC000002B09D0FF229A71164A9A80124B1A7879
:101ED000A27162461A70D6E7094FF7E7201D124932
:101EE000FFF7DCFECFE7A921104B094A490009485A
:101EF000FFF7F0FC024F67E7240100D000ED00E09F
:101F0000CD01001044110020AAAA0000486F001063
:101F1000086E0010BC6F0010551C0020FC6E0010F5
:101F2000F86D001000BDFFFF7E1100206C6F0010E7
:101F3000F8B50400012606432D4BF31A2F2B28D8A1
:101F4000FEF791F900282BD0EFF3108772B6294BDA
:101F50001B68002BFBD0BFF35F8F274D2200244965
:101F6000521A524155432D0D6DB2244B9B6880008F
:101F70001B58B3421BD00023032B32D85A00D2186F
:101F800091001B4A5218927952B2AA421FD00133D3
:101F9000F2E778211A4B1B4AFF311B48FFF79AFCE6
:101FA000BD211A4B174A49001748FFF793FC134B02
:101FB0009B68174A1A50174B1A78A2711D70BFF30D
:101FC0005F8F0C4B00221A6087F31088F8BD084918
:101FD0005A00D618B0000818FF2686710E4B838071
:101FE000E9E78C210D4B074AFF310748FFF772FCE8
:101FF00044110020240100D0AAAA000000ED00E056
:10200000146F00101C6E0010BC6F00103C6F0010AD
:10201000CD010010551C002000BDFFFFD46B001047
:102020000022044B02E0044902C30132072AFAD914
:102030007047C04600E400E080808080F0B583B047
:102040000500019117001E000C2001F071F9040039
:102050004201121A93019B1ADB001B1899013800E8
:1020600001F066F90200103A98235B009A4232D8D8
:10207000731E062B35D8089B013B062B31D8089BD5
:102080009E4234D33F09A74237D33304089A16033C
:102090001E432B68002B36DB234B9D4240D0802112
:1020A0004901224B1960224B1960224A92680B00A9
:1020B0009343FAD1019B2B60A8602A1DC0239B018A
:1020C000134321221A602A68002AFCDAEE600822F3
:1020D0001A6003B0F0BD184B184A16211848FFF7D4
:1020E000F9FB184B154A19211548FFF7F3FB164B5E
:1020F000124A1F211248FFF7EDFB144B0F4A222111
:102100000F48FFF7E7FB2A683F231340019A9342E9
:10211000C2D1AB681B051B0D8342BDD1EB68BBE789
:1021200080218901BDE7C04600C0024000E00040B8
:1021300000F0004000C0004008700010FC6F00106C
:102140002470001064700010B0700010C87000108F
:1021500080239B000343014AD362704700800540FF
:10216000064BAA2212011A602F22DA60044B054A9C
:102170001A60024B5B68002BFBDA7047004002409C
:102180000060024000B0FA00704710B5002802D08D
:102190000B684968984710BD10B5040000232168FA
:1021A0000A78303AD2B2092A08D89800C3185800E1
:1021B0004B1C23600B781B18303BF0E7180010BD58
:1021C000F0B5D6464F464646C0B582B005000091F0
:1021D000904601930A9B99460B9C0C9E0D9B9B0776
:1021E0000CD04E460C9B9946002C19D0013C571C34
:1021F000305D019B0099A8473A00F5E72700A24609
:10220000B74207D2541C019B00992020A8470137F0
:102210002200F5E754460C964E460C9B9946E3E7A0
:102220004E460D9B9B0706D4100002B01CBC904686
:102230009946A246F0BD4746D31BB342F4D2541C84
:10224000019B00992020A8472200F5E7F0B5CE4673
:1022500000B586B0049205930C9D0D9C0EAE3378AC
:102260009946109F119B129EB2071BD4002B08D0D9
:10227000F20706D54A46002A02D10C32324200D07B
:10228000013BBC4208D21F2C06D830222A5501340B
:10229000F7E730222A550134F20703D59C4201D2D8
:1022A0001F2CF6D9F20615D5720505D4002C03D0E3
:1022B000BC4223D09C4221D00F9A102A2AD00F9AD8
:1022C000102A2FD00F9A022A34D01F2C02D8302780
:1022D0002F5501341F2C05D84A46002A30D02D270F
:1022E0002F5501340396029301940095059B049A9F
:1022F000FFF766FF06B004BC9146F0BD671E002FD5
:1023000006D00F9A102A01D03C00D5E7023CD3E753
:102310003C00D1E7B206D2D41F2CD0D878272F5555
:102320000134D2E7B206CDD51F2CCBD858272F5574
:102330000134CAE71F2CC8D862272F550134C4E7DF
:10234000720703D52B272F550134CBE73207C9D5A8
:1023500020272F550134C5E7F0B5CE46474680B556
:1023600095B0089009910A920B931CAB10CB1B7887
:1023700098461E9D219B9946002C03D110234A4666
:102380009A4391468027FF004B461F4018D0002CEF
:1023900022D0002714E04A4692061BD54121C918D5
:1023A000C9B20A39C9B27E1C0CABD955290020002C
:1023B00000F0BEFFAC4210D31F2E0ED83700040031
:1023C0002900200000F0B4FFCBB2092BE3D8303352
:1023D000D9B2E8E76121E2E726004B460693209B4D
:1023E00005931F9B049303954346029301960CAB00
:1023F00000930B9B0A9A09990898FFF727FF15B0DD
:102400000CBC90469946F0BDF0B5DE46574680B507
:1024100097B00A900B910C920D931E9A08921F9CF4
:1024200020AB1B789B46229B0993239D269B9A46B3
:102430002243131E03D1103352469A4392468026FC
:10244000F60053461E4006D0089A1300234333D0AB
:10245000002637001AE0370018E05246920621D5D0
:102460004122D218D2B20A3AD2B27E1C0EABDA5551
:10247000099A2B000898210000F09CFFA5421DD866
:1024800012D01F2E16D8370008900C00099A2B0086
:102490000898210000F08EFFD3B2092BDDD830332D
:1024A000DAB2E2E76122DCE7099B089A9342E8D9B5
:1024B000370004E0370002E0002700E03700534611
:1024C0000693259B0593249B0493099B03935B46EA
:1024D000029301970EAB00930D9B0C9A0B990A98EF
:1024E000FFF7B4FE17B00CBC92469B46F0BD00004F
:1024F000F0B5D6464F464646C0B594B00A90069110
:102500000B9207931C9C08941D9D099522002B009B
:102510002000290001F0DDF9002800D0E8E00122C8
:102520005242D64B2000290001F0CEF9002800D0FD
:10253000DEE001225242D24B2000290001F0AEF928
:10254000002800D0D4E000220023089D2800099C28
:10255000210001F0A3F9002800D0DFE0089E099FC8
:102560008023DB00209A1A409046131E01D10633C7
:102570001E930C960D973A00324300D1D5E0380DEA
:102580004005400DBF4A944660443A03120BBE4BCF
:1025900013431D0001F0B0F9BC4ABD4B01F03BF9FB
:1025A000BC4ABD4B01F010F90C900D910022BB4BC1
:1025B0003000290001F0FFF8B94ABA4B01F02BF9BD
:1025C00002000B000C980D9901F0FEF801F0ACF937
:1025D000824601F091F9B44AB44B0C900D9101F090
:1025E0001AF90022B24B01F0EFF801F09DF9050055
:1025F000B04AB14B0C980D9901F00DF90C900D916A
:10260000280001F079F9AD4AAD4B01F004F9020060
:102610000B000C980D9901F0CEF802000B000E9003
:102620000F9101F0F8F810901191A64B9C4665446B
:102630002B050D9300230C930E9C0F9D22002B0065
:102640002000290001F0C0F80E900F9122002B000D
:1026500000208021C90501F0AEF8129013910022EC
:10266000994B109C119D2000290001F0B6F8002222
:10267000964B01F0A9F802000B002000290001F0A0
:10268000ACF80022924B01F09FF802000B002000F2
:10269000290001F0A2F802000B001298139901F032
:1026A00093F802000B000E980F9901F096F80022A3
:1026B000754B01F089F80C9A0D9B01F0ACF8020003
:1026C0000B000C920D9332003B0004000D0001F052
:1026D000FBF800282BD001235B429C46E2440022F9
:1026E0007A4B2000290001F078F80C900D911EE043
:1026F000209B04931F9B03931E9B0293089A099BA4
:1027000000920193079B0B9A06990A9800F0F4F83F
:1027100014B01CBC90469946A246F0BD2E00802302
:102720001B069C46644427001AE700239A4653463A
:102730006333C62B21D80425209B1B0529D50C9A71
:102740000D9B1900114310D0624A634B30003900D1
:1027500001F0B2F8002800D182E000225F4B300087
:10276000390001F09BF800287AD01E9B534506DD06
:1027700052469C1A631E1E9303E00525DCE70023E6
:102780001E938023DB00209A1A4320920025002309
:102790009A461F9B9D426DD25B1B99460223209A4D
:1027A0001A40904603D0002D01D00023994653468D
:1027B000002B07D00C9A0D9B3000390001F00DF86A
:1027C00006000F00002200230898099901F066F81E
:1027D000002800D086E0424B209A134004934B46D9
:1027E00003931E9B029300960197079B0B9A0699F1
:1027F0000A9800F081F8002D00D189E7209B9B0604
:1028000075D54526471C079B0200069930000A9E95
:10281000B0475046C2178318534005220592013D28
:102820000495002203920A320292C40F019400938D
:10283000079B3A0006993000FFF78EFD4346002BB8
:1028400000D165E702000A9E0B9C1F9D131BAB4243
:102850004FD2571C079B06992020B0473A00F5E756
:102860001E9B002B95D04346002B92D01E9B013B14
:102870001E938EE70023994690E7C046FFFFEF7F47
:10288000FFFFEFFF01FCFFFF0000F03FFB799F50CF
:102890001344D33FB3C8608B288AC63F0000F83F7B
:1028A00061436F63A787D23F71A379094F930A40B1
:1028B0000000E03F1655B5BBB16B0240EF39FAFEA0
:1028C000422EE63FFF03000000002C4000002440A1
:1028D000000018402D431CEBE2361A3F80842E4145
:1028E000FFF7FFFF802109067B181F0073E76526AD
:1028F00088E710000CE7C046F0B5D646474680B5DD
:1029000097B00690079108920993209F1E9A1F9BEB
:102910001000190000F0DDFF002839D101225242D9
:10292000BC4B1E981F9900F0B9FF00283FD101222F
:102930005242B94B1E981F9900F0C6FF002845D19E
:102940000022B64B1E981F9900F0BEFF002856D1FA
:102950000022B34B1E981F9900F0A0FF00284ED113
:10296000002200231E981F9900F098FF002856D1DE
:1029700000239A46229B5B055CD500261F2E5BD860
:10298000092F59D90EAB30229A55013F0136F5E790
:10299000229B0393219B029303230193A14B00935A
:1029A000099B089A07990698FFF70AFC03E1229B06
:1029B0000393219B0293042301939B4B0093099B58
:1029C000089A07990698FFF7FBFBF4E00423229A84
:1029D000134010D0954A002B0FD004232299039165
:1029E0002199029101930092099B089A07990698F0
:1029F000FFF7E6FBDFE08E4AEDE70323EEE7229BDD
:102A00000493219B039302971E9B1F9C00930194A8
:102A1000099B089A07990698FFF76AFDCBE01E9A72
:102A20001F9B0020002100F0C6FE1E901F91012375
:102A30009A469FE70627A0E71E981F9900F074FFAB
:102A4000040000F059FF02000B001E981F9900F0CF
:102A5000B2FEFA00774B9B181A685B680C920D93D4
:102A600000F0D9FE0A900B9100F082FF050000F003
:102A70003FFF02000B000A980B9900F09CFE0A90A1
:102A80000B9100226C4B00F01FFF00282CD0013569
:102A9000280000F02DFF02000B000C980D9900F0AB
:102AA00003FF002801D001340025002F2AD1200087
:102AB00000F022FF02000B001E981F9900F07BFE21
:102AC00000225D4B0A900B9100F0E8FE002844D1F3
:102AD0000022594B0A980B9900F0F6FE00283CD1D1
:102AE000E3073AD5013438E00022534B0A980B999A
:102AF00000F0D4FE0028D8D1002D01D0EB07D4D5AA
:102B00000135D2E70A941F2E11D8013F0A2128006F
:102B100000F00EFC741C30310EAB99550A212800D0
:102B200000F006FC092D0ED905002600EBE70A9CF3
:102B30001F2E0CD87B1E002F09D00EAA30219155D4
:102B40001F000136F4E7A0460A9C4646F0E71F2E18
:102B500003D80EAB2E229A5501361F2E10D80A210B
:102B6000200000F0BDFB751C30310EAB99550A21D9
:102B7000200000F0B5FB041E01D02E00EDE72E0072
:102B80000323229A1340012B1AD01F2E06D8534636
:102B9000002B2FD00EAB2D229A550136229B03938A
:102BA000219B029301960EAB0093099B089A07990B
:102BB0000698FFF705FB17B00CBC90469A46F0BD8F
:102BC000219B002B0AD05346002B02D10C33134219
:102BD0000ED0219B013B2193190000E021998E42E8
:102BE000D3D21F2ED1D80EAB30229A550136F6E73C
:102BF0002199F4E7229B5B0704D50EAB2B229A5553
:102C00000136CBE7229B1B07C8D50EAB20229A5575
:102C10000136C3E7FFFFEFFFFFFFEF7F65CDCD413B
:102C200065CDCDC1D0720010D4720010C8720010F2
:102C3000C4720010E07200100000E03FF0B5DE4604
:102C400057464E464546E0B593B083460B910A92EF
:102C50001193002900D1E6E200275C46119B187809
:102C6000002800D1E2E2252809D07D1C0A9B3A0009
:102C70000B99A047119B013311932F00EEE701330D
:102C8000119300261DE00B00303BDBB2092B37D936
:102C90002A293AD000239B46119B1A782E2A44D029
:102CA00000239846119A1378683BD9B2122900D9AB
:102CB00080E08B00CB49CB589F4601231E43013255
:102CC0001192119A11780B00203BD8B21028DAD853
:102CD0008300C548C3589F4602231E430132119208
:102CE000EFE704231E4301321192EAE708231E4353
:102CF00001321192E5E710231E4301321192E0E701
:102D000011A8FFF749FA8346C6E71C9B1A1D1C92BF
:102D10001B68002B04DB9B46119B01331193BBE71F
:102D2000022216435B429B46F6E78022D2001643FE
:102D30005A1C11925A781300303BDBB2092B04D98C
:102D40002A2A07D000239846ACE711A8FFF724FAF7
:102D50008046A7E71C9B1A1D1C921B68002B04DBF6
:102D60009846119B013311939CE70023F8E78023D9
:102D70005B003343511C119152786C2A01D01E0024
:102D800018E0C0239B001E430131119112E0802303
:102D90003343511C11915278682A01D01E0009E07A
:102DA000C0231E430131119104E080235B001E43C8
:102DB00001321192119B18780300253BDAB2532A95
:102DC00000D926E29300894AD3589F4680239B006E
:102DD0001E4301321192EDE780235B001E43013256
:102DE0001192E7E7782809D0582838D06F2838D0D2
:102DF000622838D010239E430A2500E01025582869
:102E000033D0692803D0642801D00C22964373057F
:102E100001D50122964369282AD0642828D0B30519
:102E200000D59FE0F30500D5B8E0730600D4CAE0F2
:102E30001C9A111D1C911168FF220A4005965B46E1
:102E400004934346039302950023019300920A9B47
:102E50003A000B992000FFF77FFA070027E01025C2
:102E6000CDE70825CBE70225C9E720221643C8E7AE
:102E7000B30520D4F30550D4730666D51C9A111DF2
:102E80001C911168FF220A40D317D11859400596AA
:102E90005B460493434603930295D20F019200913F
:102EA0000A9B3A000B992000FFF756FA0700119B86
:102EB00001331193D2E61C9BDA1D07218A431100CE
:102EC00008311C91116853689C46DB170C930D93D5
:102ED0000C9A0D9B100048400E90624653400F9391
:102EE0000E980F990C9A0D9B801A99410E900F9194
:102EF00008965B4607934346069304950023059383
:102F00006346DA0F0292009001910A9B3A000B99F6
:102F10002000FFF779FA0700C9E71C9A111D1C91E0
:102F20001268D317D118594005965B46049343465F
:102F300003930295D20F019200910A9B3A000B99DC
:102F40002000FFF709FA0700B1E7330605D51C9A00
:102F5000111D1C910023D25E96E71C9A111D1C9135
:102F6000126891E71C9BDA1D07218A431100083182
:102F70001C9108965B4607934346069304950023ED
:102F80000593029353681268009201930A9B3A00DA
:102F90000B992000FFF738FA070088E71C9A111DEB
:102FA0001C9105965B4604934346039302950023C8
:102FB0000193136800930A9B3A000B992000FFF7D6
:102FC000CBF9070073E7330606D51C9A111D1C9137
:102FD00012681204120C31E71C9A111D1C91126820
:102FE0002CE7C046E47000103071001074710010BE
:102FF00046281AD01C9B0733072293431A00083235
:103000001C9204965A460392424602921A685B68E2
:10301000009201930A9B3A000B992000FFF76CFC89
:103020000700119B0133119318E620231E43E1E7AB
:10303000672801D0472802D180231B011E43452861
:1030400001D0472801D120231E431C9B07330722B0
:1030500093431A0008321C9204965A460392424641
:1030600002921A685B68009201930A9B3A000B99DE
:103070002000FFF73DFA0700119B01331193EDE5A6
:10308000022333409A461ED001261C9B1A1D1C9217
:103090007D1C18780A9B3A000B99A0475346002BD9
:1030A00015D1119B013311932F00D7E5551C0A9BB5
:1030B0000B992020A04733002A005E1C9F42F5D8C0
:1030C000BB461700E1E701233A005F46F5E72A0017
:1030D000A0465C4606E0571C0A9B0B992020C0477F
:1030E0002E003A00751CB442F5D815004446D8E7C6
:1030F0001C9B1A1D1C921B689A464346002B00D14C
:10310000013B55462A78002A05D05A1E002B02D0D2
:1031100001351300F6E75346ED1A8023DB003340F8
:10312000994602D0454500D94546022333401093C5
:1031300008D03A00564629004D462300444698469A
:1031400089461FE03A0023005C469B4606E0571C78
:103150000A9B0B992020D84735003A006E1CAC42E0
:10316000F5D835005B46A346564629004D464446F1
:103170009846894606E01C000136571C0A9B0B99AD
:10318000C0473A003078002804D0002DF4D0631EE8
:10319000002CF0D117004D464446109B002B03D164
:1031A000119B0133119359E55C4606E0571C0A9BBD
:1031B0000B992020C04735003A006E1CAC42F5D870
:1031C00017004446ECE7212333431C9A111D1C9140
:1031D0001268009205930823049343460393102337
:1031E0000293002301930A9B3A000B992000FFF7FA
:1031F000B3F80700119B013311932FE57D1C0A9B47
:103200003A000B992520A047119B013311932F0001
:1032100024E57D1C0A9B3A000B99A047119B0133C2
:1032200011932F001AE50B4B9B4615E5A3460A9B0D
:103230009F420CD35A1E0A9B0B990020D847380096
:1032400013B03CBC90469946A246AB46F0BD3A004E
:10325000F1E7C0468921001000B585B002900391C6
:103260000121009313004A4202A90248FFF7E6FC3D
:1032700005B000BD8B21001001480421014B184707
:1032800090110020A932001010B5010018231B88EE
:1032900014221088984710BD10B5010018231B8810
:1032A00016221088984710BDF0B5C64600B5070035
:1032B0000E0000250123984600E00135B5420AD2F0
:1032C000AC003C192068FFF7DFFF20600028F4D134
:1032D00000239846F1E7404604BC9046F0BD00004C
:1032E000124A936F9B0815D29066D166002905D0CB
:1032F000FFE7FFE7FFE7516F106F704704B58021CC
:103300000906C2175140002800D0C84303F070F9E5
:10331000002104BDF0B5146E556E576F166FFFF7A0
:10332000E3FF1466556657671667F0BD000000D0CE
:10333000114A936F9B0813D210665166002905D07D
:10334000FFE7FFE7FFE7516F106F704704B50028F4
:1033500001D00020C04303F04BF9002104BDC0465A
:10336000F0B5146E556E576F166FFFF7E5FF1466D4
:10337000556657671667F0BD000000D094464E4A68
:10338000926F9208624601D230E0C046F0B54A4ED4
:10339000B56F6D08FCD3346E756E776F366F00F0C5
:1033A00025F89446444A1466556657671667624680
:1033B000F0BDC0469446404A926F9208624601D2E0
:1033C00058E0C046F0B53C4EB56F6D08FCD3346E86
:1033D000756E776F366F00F04DF89446364A146676
:1033E0005566576716676246F0BDC046002B24DB62
:1033F00011D000293EDA00B5C943404200D1013165
:1034000000F038F8C943404200D10131DB43524259
:1034100000D1013300BD002AEBD1002801D10029E1
:1034200005D00020C90FC90701D1C043410800B52C
:1034300003F0B6F80022002300BD00B500290ADB26
:10344000DB43524200D1013300F014F8C94340423B
:1034500000D1013100BDC943404200D10131DB43FD
:10346000524200D1013300F005F8DB43524200D153
:10347000013300BD002923D1002B18D1002A0CD024
:10348000BC460D4F38667A6600210023FFE7FFE750
:10349000FFE77A6F386F67467047002801D007480A
:1034A000010000B503F07CF80022002300BD0200FB
:1034B0000B00002000217047000000D0FFFFFFFF3D
:1034C000002B00D0BFE0130C28D1002AE7D080B435
:1034D000114F39667A66FFE7FFE730B4040C7B6F63
:1034E000396F1B0423433B667A66FFE7FFE7FFE77C
:1034F000C04684B27B6F3D6F1B0423433B667A66F4
:10350000FFE7FFE7C04600232C042D0C7A6F386FCD
:1035100000196941B0BC7047000000D0F0B5944676
:103520000025140E01D112020835140F01D1120129
:103530000435940F01D192000235D40F01D152000D
:103540000135D40B0134254F7C66254C3C660E0CAE
:1035500093B2FFE7FFE7FFE73C6F6643360C770364
:10356000BE467343DF0B5B04C01AB941130C7343AF
:10357000DB18C91ACE086643360CB64493B27343BF
:103580001F0F1B01C01AB941130C73431F0B1B05FE
:10359000C01AB941860D8F023E436643360C092D91
:1035A00024DB520A7243801A7703460A6643360CBC
:1035B00016235B1BDE40DF40BF1964466643821B57
:1035C0007046043506330100D940A840C01900D325
:1035D0000131A24206D20023F0BD0000000000D05D
:1035E000FFFFFFFF121B0130F3D3F1E709277F1B19
:1035F000FE406446A2B27243801A00D20139220C06
:103600007243130C1204821A99410B007046043560
:1036100013370100F940A840801900D30131002B75
:1036200002D1A2420AD2F0BD013000D30131121BF7
:10363000FAD2013BF8D1A24200D2F0BD013000D352
:103640000131121BF7E7F0B51C0C00D080E00CB480
:1036500000251C0A04D11B02160E33431202083542
:103660001C0B04D11B01160F3343120104359C0BB4
:1036700004D19B00960F334392000235DC0B02D13C
:1036800092185B4101351C00971864410134464F84
:103690007C66464C3C660E0CFFE7FFE7FFE7C04642
:1036A0003C6F6643360C7703BE4697B27743C01B28
:1036B00000D20139C01B00D201399FB27743C91B28
:1036C000C91B170C77437E04FF0B801BB941CE0842
:1036D0006643360C0C2D33DBB644120B1F053A4300
:1036E0001B0B97B27743C01B00D201399FB27743BF
:1036F000C91B170C77433E043F0C801BB941860D54
:103700008F023E43664329277F1BFE400C3D7746D0
:10371000AF40BF1930BCA2B2ABB272437343801A40
:103720009941220C7243130C1204801A9941020031
:103730000B000137001BA941F9D2781E0021F0BD12
:103740000C277F1BFE4077467F0BAF40FF19E0E759
:1037500000245D1C07D0144F7D663966FFE7FFE744
:10376000FFE7FFE73C6F95B29EB265436643401B9F
:10377000B141150C1E0C6543664336042F0C3E43C5
:103780002D04401BB141994204D202000B002000DD
:103790000021F0BD01D19042F7D3801A9941013444
:1037A0009942F2D3F6E70000000000D0FFFFFFFFD0
:1037B00048404140484018B41B4B5B68FC460193AD
:1037C00008BD04DF8B3A001018B4174B1B68FC4689
:1037D000019308BD00DF953A00109446134A926F9A
:1037E000920809D2624618B40F4BDB68FC4601937D
:1037F00008BD0CDF4D3D00100C4AF0B5146E556E3F
:10380000576F166F6246FFF7EEFF084A146655665B
:1038100057671667F0BD18B4034B9B68FC460193CD
:1038200008BD08DFF13B00105C1C0020000000D048
:10383000FFB550404240504059404B40594000E095
:10384000FFB5154F4C00640D03D0BC4204D10C03EE
:1038500014D80020090D09055C00640D03D0BC429A
:1038600004D11C030AD800221B0D1B0501264B4066
:1038700009D44B4003D58B4200D18242FFBD99420F
:10388000FCD19042FFBD0B43DB1803431343F5D03B
:10389000C9434918FFBD0000FF07000000B5FFF74E
:1038A000CFFF804100BDC04600B5FFF7C9FF01D979
:1038B000002000BD012000BD00B5FFF7B9FF01D910
:1038C000002000BD012000BD00B5FFF7B1FF804121
:1038D00000BD012040054A00121804D85A001218F1
:1038E00001D8002070470120704700207047000079
:1038F0000021002805D17047C1174840401AFAD06E
:10390000C90713B5064B1B6898470CBC441CA24062
:103910001005120B0349091B09051943114310BD7A
:10392000381C00201F04000010B54C00620D8023DD
:10393000D218DB00D21A5B057E2A10DD9E3A13DA1C
:10394000CC170903490819435242D140640001349D
:103950001532202A05DAD0400843604310BD00200C
:1039600010BD0846604310BDC80FC018013810BD17
:1039700018B4044B5B6AFC46019308BD24DFFD3E8E
:10398000001000005C1C002070B513231C78012C73
:103990000CD0012C13DC022C02DC1F4A1F4B9A6452
:1039A0001F48FFF771FC1F4B186070BD00231F2BD1
:1039B000EFD899001848194A88500133F7E71A4898
:1039C000FFF76AFC05001948FFF766FC0238037828
:1039D0009B007F2B19DD80222900104800F060FC3D
:1039E000022CD8D1124B1A88B5231B029A4209D156
:1039F000104B1A88104B9A4204D1104B1A88104B66
:103A00009A42C8D00020FDF7FFFF0E4B0E4A32212C
:103A10000E48FDF75FFFC046513A00105C1C0020C5
:103A20004C330000381C0020534400005346000073
:103A300054380000D8380000494600009C38000087
:103A40005946000030730010D873001090730010B6
:103A500007B56046002800D100BE01880A0A02307E
:103A6000DF2AFAD1C9B2820804D302884088000450
:103A7000104300E00068024A5050039007BD000068
:103A80005C1C00200FB403BC0CBCF0B50124E4079F
:103A9000634000E0F0B50C0DCF0F661E3605891BA4
:103AA000640503D3C943404200D30131640D03D000
:103AB000661CF60A07D0E41B00207F00791C8907EA
:103AC0008912803C24031D0DDF0F6E1E36059B1BE3
:103AD0006D0503D3DB43524200D301336D0D03D098
:103AE0006E1CF60A07D0ED1B00227F007B1C9B0793
:103AF0009B12803D2D032F1B661B58D4A446202EFD
:103B000046DA20371400BC401D00BD40F24033416E
:103B10002A4380185941CB0F05D0C943C043002226
:103B200064425041514162464D0D28D10D0D07D1DF
:103B300000281FD0241940414941013A0D0DF9D008
:103B4000640006D3013000D30131002C01D14008BC
:103B50004000013A0BD4941CE40A04D1120511442C
:103B6000DB071944F0BDD907204B194300E0D90702
:103B70000020F0BD0029DDD1002CDBD1F0BD0132E9
:103B8000C6074008CD0728434908002EE1D0D9E7F1
:103B90003C2E29DA203E40371400BC4000D00124DE
:103BA000F24014431A00BB401C43D317ACE7AC46A9
:103BB000202F08DA20360400B4400D00B540F8404C
:103BC00039412843A5E73C2F0CDA203F403604005A
:103BD000B44000D00124F84004430800B1400C4335
:103BE000C117EAE710001900002494E70000F07FF5
:103BF000F0B50C0D661E3605891BE60A6405640DDA
:103C000002D0651CED0A04D0002001210905803C8A
:103C10002403A4461C0D671E3F05DB1BE70A640551
:103C2000640D02D0651CED0A04D0002201231B059F
:103C3000803C24037740644497B484B296B27443C2
:103C4000070C7E43150C6F4380B26843361802D3CD
:103C5000012000043F183004350C00197D418446D2
:103C600088B29AB250430C0C62431F0C7C438EB254
:103C70007E43921902D301263604A4191604170CA8
:103C80003618674101BC81B29AB25143040C6243B9
:103C90001B0C5C4380B25843121802D3012000046D
:103CA00024181004130C401863412D185E410020A5
:103CB000474106BC88B293B258430C0C6343120CC4
:103CC000544389B251435B1802D30121090464189B
:103CD00019041A0C091862416D1856410020474119
:103CE00018BCF902720D1143F0026A0D1043ED0287
:103CF0000A0D03D16D1940414941013B124E9B1BF6
:103D00007600B3420ED26D0007D301300026714118
:103D10006646354301D1400840001B05C918E40739
:103D20002144F0BD0BDA013306D1013004D1013159
:103D30004F0D01D04908F2E7E1070020F0BD013640
:103D400031050020EBE70000FF030000F0B51C0D7B
:103D5000671E3F05DB1BE70A6405640D02D0661C85
:103D6000F60A04D0002201231B05803C2403D02541
:103D70002D060026F6432E661E096E66CE0FF61936
:103D8000B44649004F0D02D07E1CF60A03D0002035
:103D90000021403F3F033E1BB600B444013F7F0576
:103DA000C91B49082E6F013676089C02950D2543E4
:103DB0007543ED137543AD1301356D10F603761B96
:103DC0000CB4CC02450D2C43A2B2B3B25A43270C1B
:103DD0007B43350C6F43A4B26C431B1902D30124FF
:103DE00024043F191C041D0CA4187D4124196D41A5
:103DF000009A91B2ACB26143170C7C432B0C5F4329
:103E000092B25A43A41802D301221204BF1822040A
:103E1000230C52187B41019C6C431B19520ED90193
:103E20000A434401A01A81B2B2B2514303145A4367
:103E3000360C734387B27743D617D21900277E41D9
:103E400036049B191704160C7F185E417316ED1883
:103E5000F301002680337541A90F06D16400690A79
:103E6000E8055B0A184309D22FE00422944480330A
:103E70007541A90AA8059B0A184326D34041494128
:103E80002404009A019B0D005543641B4343E41A2C
:103E900095B286B27543170C7E43030C5F4392B212
:103EA0005A43B61802D301221204BF183204330C4D
:103EB00052197B4152429C41002C02D40022013015
:103EC00051414008CA071043490802B06246D7076B
:103ED0009210084BD218084B9A4203D21205891847
:103EE000C919F0BD0020002A01DC3900F0BD013302
:103EF0001905F5E7FD030000FE070000002200B5EC
:103F0000203200F004F8080000BD000000220B156C
:103F10000AD410B5944600F031F81414013400DAD4
:103F20000021CB17144C2047002000217047624429
:103F3000343A0CD40C2A07DA0400914090405242E3
:103F40002032D440214310BDD843D94310BD203284
:103F500007D40C469440524220321141D0402043B5
:103F600010BD0800C917203203D45242203210413C
:103F700010BD1800190010BD2F3F00100A0DCC0F06
:103F8000531E1B05C91A520503D3C943404200D32F
:103F90000131520D03D0531CDB0A07D0121B002045
:103FA0006400611C89078912803A1203014BD21AFE
:103FB00070470000FF03000051434343C9188C467B
:103FC000110C83B24B4310B4040C614392B280B223
:103FD000504362431C041B0C001910BC59411304CC
:103FE000120CC018514161447047000048404140E4
:103FF000484000239C46114B5B68184700239C46B1
:104000000E4B1B6818470E4A936F9B0804D200237F
:104010009C460A4BDB681847F0B5146E556E576F17
:10402000166FFFF7F4FF064A146655665767166762
:10403000F0BD00239C46014B9B6818475C1D002087
:10404000000000D007B548404140484001E0C0466C
:1040500007B54200120E03D0FF2A03D1420218D83E
:10406000C00DC0054A00120E03D0FF2A03D14A0238
:104070000FD8C90DC9050122414005D4414001D5E1
:10408000814207BD884207BD0143491801D0C043A2
:10409000001807BD00B5FFF7D5FF804100BD000047
:1040A000C10FC90700D54042002817D0F44603B419
:1040B0000B4B1B68984706BC81409E3840428031BC
:1040C00007D20B0607D04900490AC0051043084330
:1040D00060470130F8E7490A8902F5E770470000B8
:1040E000381C0020034BDB6FFC4618477CDF29425D
:1040F000001000005C1D002070B513231D782A48B5
:10410000FFF7CAF80400012D11D0012D09DDA31E0F
:104110001B789B007F2B40DD80222100234800F08C
:10412000BFF82348FFF7B0F8224B186070BD542247
:1041300001001E4800F0B4F81F4B1A881F4B9A422A
:104140001CD1A7239B011A881D4B9A4216D11D4BE7
:104150001A881D4B9A4211D11C4B1A8894239B013B
:104160009A420BD11A4B1A881A4B9A4206D11A4B13
:104170001A681A4B9A4201D1152307E01848FDF737
:1041800043FC99001748094A885001331F2BF8D97E
:10419000144A064B1A62DA61B7E7134B134A4221FD
:1041A0001348FDF797FBC046534600005C1D0020F6
:1041B0004C330000381C0020EE290000C40F000022
:1041C000C20D0000962B0000C0B50000182B0000A7
:1041D000CC2A000010B50000FC2C000051ED8764D3
:1041E000946C0010F5410010EC730010687400101E
:1041F0002074001007B56046002800D100BE018879
:104200000A0A0230DF2AFAD1C9B2820804D302882E
:1042100040880004104300E00068024A50500390B8
:1042200007BD00005C1D0020C30FDB0741000A0E24
:1042300007D0FF2A08D00909054A89181943400701
:1042400070471900002070470249C918FAE70000BA
:10425000000000380000F07F10B5040001F0F8FB0A
:10426000002804D00419034B9C4200D810BD02481A
:10427000FDF7CAFB000004207C74001010B501F0AB
:10428000F1FB10BD01480421014B1847A01100208B
:10429000A9320010014B1B6818470000A011002034
:1042A000014B5B6818470000A011002010B50C00FE
:1042B000036811002000984710BD0000F8B5070002
:1042C0000D001600437C002B02D0002400200CE0DF
:1042D00003681100280098472DE03B7C10E0022184
:1042E00015483B689847601C0134B44214DA002C2E
:1042F000F3DD2B19013B1B780D3B5A425341DBB2D6
:104300002A5D0A2AF0D1002BEED1A042E7DA211A69
:1043100028183B689847E2E7B04203DA311A2818B8
:104320003B689847002E06DDAD19013D2B780D3B0B
:104330005A4253413B74F8BD0075001070B505003A
:104340000368002B16D00C4B1C6805E0290004C93B
:104350002000FFF7B3FFE468002C09D02368002B8E
:10436000F9D0064B1B68002BF0D0A342F3D1EDE748
:1043700000232B6070BDC0461C1C0020201C0020A8
:1043800070B505000C000B68802B05D023685A1C03
:104390002260E418257170BD0800FFF7CFFFF5E734
:1043A00010B582B0D0231B0600241C5701A9074872
:1043B00002F02EF9002806D1019B9C4203D003484D
:1043C00002F056F9012002B010BDC046181A0020B4
:1043D00010B5024802F0DCF810BDC046181A0020E3
:1043E000F0B5C64600B584B001900D0016001C0063
:1043F000FFF7D6FF80466B1C05D0002C08D0194F64
:10440000194B1C6807E0019801F036FF0500F4E73E
:10441000164FF5E7E468002C16D02368002BF9D07E
:10442000134B1B68002B01D0A342F3D12A00019942
:104430002000B847002EEDD002ABD91D0A230B7027
:1044400001222000B847E5E74346002B06D1681E4D
:104450008541E8B204B004BC9046F0BDFFF7B8FF58
:10446000F5E7C046AD4200101C1C0020BD42001004
:10447000201C00200C4B1A681300002B0BD0834229
:1044800002D01A00DB68F8E7002903D1DB68D360AB
:104490000023C36070470029FCD0002A01D0D060FF
:1044A000F8E7014B1860F5E71C1C002010B5064B1F
:1044B0001C6800E0E468002C04D06368002BF9D08D
:1044C0009847F7E710BDC0461C1C002070B50500DA
:1044D00001F0D2FE04000023012201002800FFF7B2
:1044E0007FFFFFF7E3FF200070BD000070B5A2B0B2
:1044F00004000E00FFF754FF05008422002101A8EC
:10450000FFF7C8FE3300220001A90848FEF7A4FE09
:10451000040001A8FFF712FFFFF7C8FF002D02D12A
:10452000200022B070BDFFF753FFF9E78143001070
:104530000FB400B583B004A901C90191FFF7D6FFFC
:1045400003B008BC04B0184710B500F083F810BDE4
:10455000F0B583B000251AE06B4607330D241C70BC
:10456000002403E01F78176001340133002C1CD1B4
:104570009769BF06FCD4F5E71E7816600134013355
:10458000002C03D19669B606FCD4F5E701358D42BF
:1045900010DA094B1A68465D084BD3185C42634138
:1045A0005B00074C1B5FB342D6D06B4607331E70CF
:1045B0000024E5E703B0F0BD501C00200080FCBFE4
:1045C000581C0020F0B583B0070000200EE01368EF
:1045D0002B7001340135002C03D19369DB06FCD428
:1045E000F5E76B4607331B780370300088420ADA20
:1045F000084A1268956910242C4004D1461C3818CA
:104600006B46DD1DE7E7002801D003B0F0BD03389D
:10461000FBE7C046501C002070B515001C000B4B7A
:104620001860FCF7ABF8002D06DA002C09DA01213E
:104630000748FFF71FFF70BD02212800FBF7D2FFDC
:10464000F3E702212000FBF7CDFFF0E7501C00202C
:10465000B011002010B5064B1B78064B1B78E121EA
:104660000123002249020448FFF7D6FF10BDC046CF
:104670004C7A0010507A001000400340F0B5DE463E
:1046800057464E464546E0B583B006000CA8007874
:1046900082460D9D30680024C466306841603168F0
:1046A0000120C8669846002700239B46110029E098
:1046B0003279002A2FD001222DE05046002801D067
:1046C00000202CE001202AE0002B0BD13268526B35
:1046D000D20607D4002DF7D00E98A8470300044354
:1046E000E4B2F1E7002B09D13268802151588B46A2
:1046F00000291DD1002C28D1B9451CD0002C31D166
:104700000137019947452DDA012252424244914630
:10471000002FCDD000229202B945CED00020400219
:104720000243481C01900878316802430A61D1E7CE
:10473000526D012409E05246002ADFD105E0002B2A
:104740000BD13268526B920507D4002DF7D00E982A
:10475000A84703000443E4B2F1E7002BCED132684E
:10476000126ECBE7002C09D0002B14D15B46002B36
:1047700014D0DB0715D45B461B0709D553463371AC
:10478000380003B03CBC90469946A246AB46F0BD0B
:1047900002277F42F2E701277F42EFE702277F42AD
:1047A000ECE702277F42E9E7F0B5DE4657464E4682
:1047B000C0B50500914608AA12789346099E026882
:1047C0000020D0662A6851602A680121D1669A4685
:1047D0000027002300242AE02979002932D0012172
:1047E00030E05846002801D000202FE001202DE0C5
:1047F000002C12D12A68926F002A0ED12A688021DB
:104800005158546D601E8441E4B2002EF0D00A98D5
:10481000B04703000443E4B2EAE7002C1DD12A6844
:10482000126949460A70013701229446E14457450E
:1048300013DA5246501E2A68516F1029FBD0002F00
:10484000CAD000218902B842CBD0002040020143E7
:104850008020400001431161D0E7002C03D0002BE1
:1048600009D001277F425B462B7138001CBC914662
:104870009A46A346F0BD02277F42F4E7044B9842D4
:1048800003D01022034B1A6070470822FAE7C04693
:10489000C411002000E00040F0B5D6464F46464621
:1048A000C0B505000C000520FDF7C4F9070060083D
:1048B000C0192100FEF73CFD804646004644052114
:1048C0003000FEF735FD814643461B1A9A46274BBA
:1048D0009C4223D87800C0192549FEF729FD441CC5
:1048E0004B46023BA34220D32B680022DA6629689C
:1048F0000A680423534006221A4080235B010B43BD
:104900001A602B685246DA612B684A461A624F2EAB
:1049100011D950213000FEF70BFD0DE07800C019D1
:104920001449FEF705FD441CDAE7134B134A5F21D7
:104930001348FCF7CFFF0120A0232A68D0502A6833
:1049400011007C31D06F44402404240C80235B018F
:104950000B431C602B680122DA6641463800FEF7E3
:10496000E7FC1CBC90469946A246F0BD3F420F00B2
:104970008096980040787D015875001044750010AD
:104980007875001010B5114B98421CD01022104BB6
:104990001A60104B1A60104B9B6814009C43231E36
:1049A000F9D104710268D46602686624FF34146089
:1049B0000268D36302689363883303220468E25079
:1049C000FFF76AFF10BD0822E1E7C046C4110020CE
:1049D00000E0004000F0004000C0004030B585B06D
:1049E00008AC25780024029401940095FFF746FE58
:1049F00005B030BD30B585B008AC257800240294F0
:104A000001940095FFF7D0FE05B030BDF0B5D64655
:104A10004F4646468A46C0B5502825D00F2404404C
:104A20000C2C00D973E03B4DA4002C59A7465578B7
:104A300014782D022543947824042543D478240641
:104A40002C43151D002C08D070260640102E00D1D6
:104A5000924640B25444002819DB28001C601CBC5C
:104A600090469946A246F0BD032103328A431500C1
:104A700010CDF2E7557814782D022543947824045C
:104A80002543D47824062C4315000835DAE724683A
:104A9000E3E75478157824022C43951CD2E7547828
:104AA000157824022C4324042414951CCAE77F2182
:104AB00016000024002789463178751C4E460E40AA
:104AC000BE408C4649B2344307372E000029F3DB41
:104AD0001F2FB7D861464906B4D50126BE4076429D
:104AE0003443B1E700218C467F311700002488460B
:104AF0003E787D1C4746614637408F4007218946F6
:104B000076B23C43CC442F00002EF1DB9AE700F054
:104B100097FFC046B875001010B5FF2815D0702358
:104B20000340202B17D009D9402B10D0502B0CD08C
:104B3000302B08D1080001F053FD10BD0020002BE0
:104B4000FBD0102BF9D000F07BFF0020F5E7080028
:104B500001F06EFDF1E7080001F012FDEDE7C0463F
:104B6000F8B506000F0014000020002E02D030001F
:104B700001F05EFD20607D1C3F78FF2F2BD160602F
:104B80002B78681C2375FF2B35D0102302000025DD
:104B900000217F262375137832001A408A400130A5
:104BA0005BB2154307310200002BF4DB4519E560C9
:104BB000002500217F2603780130637532000378D9
:104BC00001301A408A405BB215430731002BF5DBF8
:104BD00045192561F8BD31003800FFF79DFF231D01
:104BE00001002A003800FFF711FF05002B78681C30
:104BF0002375FF2BC9D10023E360D9E7F0B55746F1
:104C00004E46DE4645460023E0B595B00A93033391
:104C10008A4691460340012B00D1A5E0002B00D02D
:104C20008DE0030700D58DE001230EAE03935346BC
:104C30000E9300230C2200210096484601F0B8FC98
:104C4000484601F01DFD0490002800D17AE03200B2
:104C500004994846FFF784FF49460500307DFFF779
:104C60005BFF0DABB0600F2200939B460021002339
:104C7000484601F0E5FC01220D9B9343013B984619
:104C800033699D4200D37EE07F274446737D002137
:104C900018009846FFF740FF2A0001000BAB404682
:104CA000FFF7B4FE757D804600212800FFF734FF32
:104CB000424601000CAB2800FFF7A8FE757D804638
:104CC00000212800FFF728FF424601005B4628002C
:104CD000FFF79CFE0021020000201378551C3A00CB
:104CE0001A408A405BB2104307312A00002BF4DBE4
:104CF0000B9933688C466344A3422CD9039BDB0792
:104D00003BD50023002405935B460D220093002130
:104D1000002348460A9D01F093FC53469C620624FA
:104D20000D9A5D621A62049ADA62059A1A6320008B
:104D300015B03CBC90469946A246AB46F0BD022B4E
:104D400000D0A7E14946504601F03AFC092400286A
:104D5000EDD10824EBE70C998C466344A34272D84A
:104D60003369AB4292D8C9E70823184014D0022314
:104D7000184303900E910EAE5BE70823039A13428B
:104D800007D000F0E9FC03990A42BAD108230B428C
:104D9000F7D1504600F022FA0EAE0C6A00230096BE
:104DA0000D220021484601F04BFC0E9B9C4202D094
:104DB000022303933BE7534600960E930C220023F5
:104DC0000021484601F0F4FB53461B6B0593002B72
:104DD000DFD053469C6ADB6A04930DAB9B460325E8
:104DE000002C44DB53460D935B46002200930021C8
:104DF0000023484601F0DCFB5B46012200930021C2
:104E0000002348460D9401F0D3FB5B460F2200932C
:104E100000210023484601F013FC01230D9A0021D4
:104E20001340059A484613430D935B460F220093A7
:104E3000002301F0BDFB0724022D00D077E7504688
:104E400000F0CAFA73E70D9B0400002B00D179E74C
:104E50007268944663440593002829D1002B00D141
:104E600070E7039BDB0700D56CE70225BAE7631CFC
:104E70000793320004994846FFF772FE4946307D99
:104E8000FFF74AFE079BF1689B00B060C91A0B68E8
:104E9000002B05D0002301339A008A58002AFAD14A
:104EA000524693620423D06213635163032599E74A
:104EB0003369451E9C46059B6544002B00D141E7A4
:104EC000002D00D1D0E00823039A1A40089200D1A7
:104ED000D1E052463F33137007335370073393705A
:104EE000123BD3700333137109335371033393713E
:104EF0000023D371002306934B467F27B1462E0033
:104F00000993002400213A003078731C02408A4043
:104F1000144342B21D0007311E00002AF3DB1F2993
:104F200006D84022024203D03F3A8A4052421443FC
:104F3000002600213A001878013302408A401643C7
:104F400042B20731002AF5DB1F2906D8402303426D
:104F500003D03F3B8B405B421E43002C13D015DC3B
:104F6000631C119A07939B00D31A984619685346FD
:104F7000002B02D0089B002B43D000292BD0002E01
:104F80006CD0AE19BDE701230693F8E74B46187DB8
:104F9000FF2856D007230340022B4FD02CD9032BD8
:104FA0002CD0042B76D1E20052424B46DB684946B6
:104FB0009C46896862445B46FFF728FD0D990029ED
:104FC00009D05346002BDAD00AAB0022504600F03D
:104FD0009BF90028D3D0099B4E469946039BDB07DB
:104FE00000D591E6089B002B00D1F8E60325002CA4
:104FF00000DBF7E600F0BCFB002B4BD1A2005242D5
:10500000D3E70A9B0D93002940D05B46AB4655463B
:10501000A2464446B0461E0003E00434216800293D
:1050200011D0611833000022280000F06DF900282B
:10503000F3D0AA465D46B3464646A0E76200524218
:10504000B3E70022B1E7099B5446B346AA464E4651
:105050009946039BDB0700D556E60AE7099B99466C
:10506000069B002B00D16DE6039BDB0700D569E6AC
:1050700000240225B6E65346DA795833012A01D0D6
:105080000A9337E7783B1B680A9333E7099B4E4640
:105090009946DEE700F0D4FC00F002F871E6C04665
:1050A00070B5040000F07CFB230022780568203BEB
:1050B000472A04D0002D2BD10360280070BD6278F0
:1050C0004E2AF7D1A278552AF4D1E278432AF1D1B9
:1050D0002279432AEED162792B2AEBD1A2792B2AAD
:1050E000E8D1E279012AE5D85A69002A0DDB0132BC
:1050F0005A614268013A42609D4201D01D610360DD
:105100002000656A01F08CFAD7E701218A1AEFE7DF
:1051100000F022FB10B500F03FFB0368002B09D024
:1051200020229A5C472A06D0002220330260180011
:1051300001F04EFA10BD263A9A5C4E2AF4D12C3A70
:105140009A5C552AF0D1323A9A5C432AECD11F3A44
:105150009A5C432AE8D11E3A9A5C2B2AE4D1053A9C
:105160009A5C2B2AE0D1043A9A5C012ADCD85A696D
:10517000002A07DB013A002A0BD001DB5A61D9E78C
:1051800000F0EAFA0132002AF8D1196901605A6187
:10519000D0E71A6920330260180001F019FAC9E754
:1051A000027803000020472A00D070475A784E2A20
:1051B000FBD19A78552AF8D1DA78432AF5D11A79B1
:1051C000432AF2D15A792B2AEFD19A792B2AECD1A2
:1051D000DB792A3A9A424041C0B2E6E710B5041E94
:1051E00006D0FFF75DFF2000FFF7DAFF002801D1AE
:1051F00000F0B2FA203CE06800F09AFAF0B54E46B2
:10520000DE4657464546E0B585B00600FFF7C8FFC5
:1052100000280BD03300203B9A68DC68B36A9146C3
:105220009A460023376B756B984606E0012304000D
:10523000814698460500070082463000FFF730FFA0
:105240004346002B01D000F093FA484600F08CFA58
:10525000FFF726FF4346002B01D000F07DFA00F057
:105260009BFA27230668F25C33007833012A00D1C9
:105270003368BF080293BB00019300239946203690
:10528000CA4520DD2F68002F00D07F1902AB002215
:105290003900300000F038F8002801D000F010FA92
:1052A0003B6803901B6903AA9B4611490123380000
:1052B000D847002800D0804601239C46019BE1444A
:1052C0009C466544DCE74346002B08D0042000F0F0
:1052D0005FF9084B084A0360054900F0D7F9200040
:1052E00000F026FAFFF716FFFFF714FF00F006F8AC
:1052F0001076001094760010A95700101EB400F02C
:105300009BF81EBC01F07CF9F0B5C64600B5984686
:10531000037882B00E00472B1DD000232C4C019344
:10532000236820009B689847012500280ED1336828
:1053300001AA1F69210001233000B847002831D19C
:105340000025280002B004BC9046F0BD019B013549
:105350001B680193EBE743784E2BDED18378552B06
:10536000DBD1C378432BD8D10379462B24D00379E2
:10537000432BD2D143792B2BCFD183792B2BCCD17B
:10538000C279012AC9D80300203B1C685830012A81
:105390000CD00190236820009B68984701250028C5
:1053A000C5D0D3E74346019A1A60CAE7230020001C
:1053B000783B1C680190EDE743794F2BD7D1837977
:1053C000522BD4D1C379002BD1D10193014CA7E743
:1053D000087600100076001010B5040000F0E0F927
:1053E00023002278203B472A05D08268002A20D15A
:1053F0008360012010BD62784E2AF6D1A278552A2A
:10540000F3D1E278432AF0D12279432AEDD16279AF
:105410002B2AEAD1A2792B2AE7D1E279012AE4D812
:10542000DA690132DA61012AE3D182689A61836024
:10543000DFE700F091F9C04610B500F0B1F98368DC
:10544000002B2ED020229A5C472A04D000228260B2
:105450002033180010BD263A9A5C4E2AF6D12C3A19
:105460009A5C552AF2D1323A9A5C432AEED11F3A1D
:105470009A5C432AEAD11E3A9A5C2B2AE6D1053A75
:105480009A5C2B2AE2D1043A9A5C012ADED8DA69C6
:10549000013ADA61002ADBD19A69826000229A61BE
:1054A000D6E700F059F9C04670B51F4C083863685C
:1054B000002B1FD006688519AB421BD8596825D030
:1054C000002929D08D4204D32AE00B00954204D252
:1054D00011004A681C1D002AF7D1954210D023689C
:1054E0001A689918884208D05B6806604360236890
:1054F000586001E04360606070BD96191E60FBE774
:105500002B689C466B6866444B60E8E71B6841600B
:105510009E1906606060EFE7002219000434DCE7A2
:105520000A0004341900D8E7941B00200200083256
:1055300030B5082A00D208220723144C07329A43B8
:105540006368002B1CD019688A4204D81AE00168ED
:105550008A4204D9030058680028F8D130BD0433CA
:105560008C1A4568072C07D981184D6018680C60A3
:10557000026019600830F1E701601D600830EDE756
:105580000020EBE71800231DEAE7C046941B00202B
:1055900070B580300500FEF75FFE041E07D0802244
:1055A00000212000FEF776FE2000803070BD28002C
:1055B000FFF7BCFF041EF2D100F0CEF8074A803896
:1055C000936810B5984203D9D2689B18984202D3C9
:1055D000FEF754FE10BDFFF767FFFBE7941B0020AA
:1055E00070B59E25084C2D012800E560FEF734FEBD
:1055F000A060002804D0002360600560436070BD97
:10560000E0606060FBE7C046941B002010B50128F5
:1056100012D80B00283B1A68501E1860012A00D0CF
:1056200010BDDB6858310C00002B01D008009847F2
:105630002000FFF7C3FFF3E72839486900F078F846
:1056400070B505000026803DEA602E60A960040068
:1056500000F09CF8286100F093F823004722583BA3
:1056600068611A7007325A7007329A702200432319
:10567000553A13705370183B9370D370024B513CE2
:10568000267028002B6370BD0D56001070B5040005
:105690000D00160000F084F84368320001334360C7
:1056A00029002000FFF7CCFF01230360283004000D
:1056B00000F0D6FF2000FFF7F3FC00F04DF8C046E5
:1056C00010B500F06DF8436804685A1C4260002C65
:1056D0000CD02022A25C472A0AD00022026020348B
:1056E000200000F0B5FF2000FFF7DAFC00F034F8EE
:1056F000263AA25C4E2AF0D12C3AA25C552AECD173
:10570000323AA25C432AE8D11F3AA25C432AE4D190
:105710001E3AA25C2B2AE0D1053AA25C2B2ADCD1EE
:10572000043AA25C012AD8D863695A426261D6E77A
:1057300070B5804700F084F9FFF7B2FC00F080F903
:105740000D000400FFF7E6FC6B1C01D0FFF7D6FD4F
:105750002000FFF753FDC046024B10B51868FFF755
:10576000E7FFC046CC11002010B58047FFF7F4FFDB
:10577000024B10B51868FFF7F7FFC046D0110020A4
:10578000014B18687047C046CC110020014B1868C7
:105790007047C046D011002000487047881B002089
:1057A00000487047881B00207047C046004870477B
:1057B000EC75001010B50400042100F003F820007F
:1057C00010BDC04610B500F001F810BD10B5FEF7D1
:1057D00055FD10BD30B585B0002314006A46137125
:1057E000102200930393036802929D6922686B461E
:1057F000A8476B461A79062300201340062B02D1D6
:10580000009B0130236005B030BDC046009B981A54
:10581000421E904104234042984306307047C046E0
:1058200010B50400034B0833036000F055F8200066
:1058300010BDC046D076001010B50400054B0833EB
:10584000036000F049F820000821FFF7BBFF2000AB
:1058500010BDC046D076001070B516001D00069A27
:10586000049B040093420ED02900200000F038F879
:10587000002806D0079B049A1E711A600123079A1C
:105880009371002070BD059900F02AF80028EBD034
:10589000079B5E71F5E7C04670B515001C0000F06F
:1058A0001FF8002804D00823E360023B2560237121
:1058B00070BDC046F8B505000C0017001E0000F0D2
:1058C0000FF8002807D1032E05D823683A005B693A
:1058D000290020009847F8BD7047C0460020704757
:1058E00010B5814211D0406803782A2B0BD049684B
:1058F0000B782A3B5A425341C91800F079FC4342C5
:105900005841C0B210BD0020FCE70120FAE7C046B4
:1059100010B50400034B08330360FFF781FF20003C
:1059200010BDC0464877001010B50400054B083381
:105930000360FFF775FF20000C21FFF743FF2000F5
:1059400010BDC04648770010F0B583B01E00089B1C
:1059500005000F00140093420AD0A868089A036853
:1059600000921D6A220033003900A84703B0F0BD41
:105970003100FFF7B5FF0028EFD00620F6E7C0465C
:10598000F0B5C64600B50D0084B01900060090467B
:105990001F00FFF7A5FF041E18D10A9B0C9A934223
:1059A00031D00D9AB0682900036803920C9A0292D4
:1059B0000B9A01920A9A0092DC6942463B00A0478A
:1059C0000400200004B004BC9046F0BD0D9B0A9A70
:1059D0001A6042461A71002D0EDB0A9B00249C4679
:1059E0000C9B65445D1B6B425D4105236D421D4070
:1059F0000D9B01359D71E4E70024AB1CE1D101232F
:105A00000D9A9371DDE70B993000FFF769FF0028CD
:105A1000C7D042460D9B5A71D3E7C046F8B5070080
:105A20000C0015001E00FFF737FF002806D1B868EC
:105A30002A00036821009F693300B847F8BDC046BB
:105A400010B5062000F08CFB0120FBF721FFC046BB
:105A500010B5034B0100186800F00EF810BDC046E9
:105A6000D811002010B5034B0100186800F088FC25
:105A700010BDC046D8110020F0B557464546DE4659
:105A80004E46E0B50D000B3583B00700162D22D829
:105A9000102900D9BBE000F0B5FA10251823022028
:105AA000D14EF3181A005C68083A944200D1BEE067
:105AB000032362689A431300E268A168CA60916098
:105AC0000122E318596838000A435A6000F09CFA32
:105AD000200008309EE007239D4300D597E0A942AF
